:020000040800F2
:10000000884B0020C1020008C9020008CB0200088A
:10001000CD020008CF020008D10200080000000055
:10002000000000000000000000000000D3020008F3
:10003000D50200080000000075370008D90200084A
:10004000DB020008DB020008DB020008DB0200081C
:10005000DB020008DB02000811210008DB020008B7
:10006000DB020008DB020008DB020008DB020008FC
:10007000DB020008DB020008DB020008DB020008EC
:10008000DB020008691C0008DB020008DB02000834
:1000900019180008DB020008DB0200082121000813
:1000A000DB020008DB020008FD3F0008DB0200085D
:1000B0000D400008DB020008DB020008DB0200083C
:1000C000DB020008DB020008DB020008DB0200089C
:1000D000DB02000801450008114500082145000821
:1000E000DB020008DB0200088532000899400008A6
:1000F000B9400008A9400008DB020008DB02000844
:10010000DB020008DB020008DB020008DB0200085B
:10011000B9440008CD440008DB020008DB020008F7
:10012000DB020008DB020008DB020008DB0200083B
:10013000DB020008DB020008DB020008DB0200082B
:10014000DB02000839190008DB0200087D320008D4
:10015000A11C0008DB020008DB0200083145000892
:10016000DB020008DB020008DB020008DB020008FB
:10017000DB020008DB020008DB020008DB020008EB
:10018000DB020008DB020008E1440008F14400083B
:10019000DB020008DB020008DB020008DB020008CB
:1001A0000000000000000000DB02000800F002F880
:1001B00000F077F80AA090E8000C82448344AAF18A
:1001C0000107DA4501D100F06CF8AFF2090EBAE888
:1001D0000F0013F0010F18BFFB1A43F0010318477B
:1001E0009C9C0000BC9C00000A444FF0000C10F8DE
:1001F000013B13F0070408BF10F8014B1D1108BFA5
:1002000010F8015B641E05D010F8016B641E01F844
:10021000016BF9D113F0080F1EBF10F8014BAD1C94
:100220000C1B09D16D1E58BF01F801CBFAD505E0B2
:1002300014F8016B01F8016B6D1EF9D59142D6D30C
:10024000704700000023002400250026103A28BF34
:1002500078C1FBD8520728BF30C148BF0B60704738
:10026000662909F07083642900F0CA80732900F0C0
:100270000884002070471FB509F05BFB9DE8030070
:1002800000F060FF00F046FC04000020002108F0B0
:10029000B1FEE06000F03EFD1FBD10B500F0A3FD13
:1002A00010BD00F0D7FD1146FFF7E5FF05F0BAF9E4
:1002B00000F0DCFE03B4FFF7F0FF03BC04F070FFB6
:1002C0000948804709480047FEE7FEE7FEE7FEE7EA
:1002D000FEE7FEE7FEE7FEE7FEE7FEE70448054926
:1002E000054A064B70470000A53A0008AD0100081A
:1002F00088450020884B0020884700208847002040
:100300000FB4044910B503AA029800F0BFFB10BC5B
:100310005DF814FBC40300200FB41CB5084B06AAFB
:100320007B4469460090059800F081FB044600205C
:10033000694600F08FFB20461CBC5DF814FB0000F2
:10034000310700002DE9F0410E46044600202062EE
:100350002046E168884730B3252805D0D4E901213B
:100360009047206A401CF2E7E16820460027884752
:10037000050018D0A5F14100192802D820354FF406
:1003800000673246294620462760FFF769FF40B1E3
:10039000012804D0F61D26F007060836D8E7361DDA
:1003A000D6E72846DAE7206ABDE8F08170B50C464A
:1003B0000546012A05D02878800600D5EA69002381
:1003C00002E0012305E05B1C934202D2E05C0028BE
:1003D000F9D1A869E618C01AA861286A18442862E9
:1003E0002846AFF3008004E0D5E9012114F8010BA1
:1003F0009047B442F8D32846AFF3008070BD0000A8
:100400002DE9F0410646002410687529314616A5ED
:1004100010D0AFF30080002802DA404213A507E0B5
:1004200031688A0701D512A502E0490704D511A554
:10043000012401E0AFF3008000210A2206F1240725
:1004400009E0B0FBF2FCB0FBF2F302FB1C00303021
:1004500078541846491C0028F3D123462A463046D2
:10046000BDE8F04100F077B8000000002D0000006A
:100470002B00000020000000032A40F2308010F022
:10048000030C00F0158011F8013BBCF1020F62442F
:1004900098BF11F801CB00F8013B38BF11F8013BC0
:1004A000A2F1040298BF00F801CB38BF00F8013B6D
:1004B00011F0030300F0FC82083AC0F0088051F804
:1004C000043B083A51F804CBA0E80810F5E7121DE8
:1004D0005CBF51F8043B40F8043BAFF30080D20707
:1004E00024BF11F8013B11F801CB48BF11F8012BD3
:1004F00024BF00F8013B00F801CB48BF00F8012BF6
:1005000070474FF0000200B51346944696462039D6
:1005100022BFA0E80C50A0E80C50B1F12001BFF4BC
:10052000F7AF090728BFA0E80C5048BF0CC05DF822
:1005300004EB890028BF40F8042B08BF704748BF70
:1005400020F8022B11F0804F18BF00F8012B7047E4
:100550007047704770472DE9F0470D46994692461F
:10056000044600F124080168880604D5E06921F0FA
:100570001001216000E00120A84201DD471B00E0DE
:100580000027A1697A1902EB0900081AA0612078F6
:10059000C00602D42046AFF30080002608E0D4E96C
:1005A00001211AF806009047206A401C761C206240
:1005B0004E45F4DB2078C0060AD52046AFF3008014
:1005C00006E0D4E9012130209047206A401C2062D7
:1005D000381EA7F10107F4DC07E0D4E9012118F87F
:1005E00005009047206A401C2062281EA5F10105E5
:1005F000F3DC2046AFF300802078000602D502200D
:10060000BDE8F0870120FBE72DE9FF4F0C461E46B1
:100610004FF0FF378BB0D2E90001DDF860800A901F
:100620008A46C1F30A5505B93D46002108464FF0F8
:100630000000BAF1000F00F4400005DA00EB800082
:100640004FF4400101EA50004FEA9059B9F1010F0F
:1006500000DDB9460A9850EA4A000ED044F6105020
:10066000A5F2FF3545432F14B8F1000F1ED0754297
:10067000291E1EDDC9F100021CE0B8F1010F4FF088
:10068000000001D0302103E0F24305E02154401C7A
:10069000B042FBDB30460022002121540B99C1F807
:1006A0000880C1E900200FB0BDE8F08FBD1B6D1CB4
:1006B000DEE74A4600DA694206A800F0B5FA06AB62
:1006C00093E8070003AB83E8070050460A9905F05A
:1006D000EDF98DE80700A0F500501F380090039851
:1006E000002D0ADD42F21F014A460844002303A9F7
:1006F0000390684605F056FC09E0A0F500504A4614
:100700001F38002303A90390684605F060FC8DE8BC
:1007100007000004000C03D04FF0FF30410800E058
:100720001046B8F1000F03D00022009215461EE0DB
:10073000751E05D400F0F2F9303262556D1EF9D500
:10074000B3460122084302D000227F1C04E0207837
:10075000302801D100227F1E002A099784D01DE095
:10076000112D07DA00F0DAF9303262556D1C50EACB
:100770000102F5D1084302D00098C8B10EE0002173
:10078000681E05E0235C625C63542254401E491CD1
:100790008142F7DBAB46A81B401E0990002004F8FD
:1007A0000B000B98099AC0F80880C0E9002B7AE783
:1007B00011264FF0000857E72DE9F04F8846044610
:1007C000D21D22F0070191B0D1E90001CDE90A0163
:1007D00008F0EEFB02460B98C00F01D02D2007E079
:1007E0002068810701D52B2002E0202101EAC0000A
:1007F000032A099001D0072A05DB0346414620461B
:1008000000F0D2F90BE12078800601D5E06900E024
:100810000620B8F1650F814606D0B8F1660F18D0F2
:10082000B8F1670F70D131E00020B9F1110F0090DD
:1008300001DB112301E009F101030AAA01A90CA8B7
:10084000FFF7E2FEDDE90C70002609F101058346A1
:1008500047E001204B4600904FF000470AAA01A94B
:100860000CA8FFF7D1FEDDE90DB00C995D4600261E
:1008700010B909F101000D18B9EB050003D4C0F15E
:10088000FF3609F10105A5EB09002BE0B9F1010FD5
:1008900001DA4FF001090020B9F1110F009048462C
:1008A00001DD112300E003460AAA01A90CA8FFF705
:1008B000ABFEDDE90C704D4600268346207800072C
:1008C0000AD4AB4500DA5D4601A8012D04DD4119CB
:1008D00011F8011C302907D04F4502DA17F1040F37
:1008E00004DA012082460FE06D1EEEE7002F02DCE5
:1008F000ED1B3E4403E0781CA84200DD7D1CB81BC4
:1009000000F1010A4FF000472078000703D4AA4500
:1009100001DB4FF0FF3A0021B7F1004F0DF1430822
:100920008DF8431024D002202B23002F01DA7F42C0
:100930002D230A21021EA0F1010000DC5FB197FB0C
:10094000F1FC97FBF1F201FB1C7C17460CF1300C1B
:1009500008F801CDEEE7A8F1010003702188090530
:1009600001D5452100E06521A0F1010800F8011C36
:1009700009980FA9A1EB0807FF1D00B1012041193B
:1009800001EBEA70A1693844081A401EA061207882
:10099000C00602D42046AFF30080099828B1D4E9FC
:1009A00001219047206A401C20622078C00622D591
:1009B0002046AFF300801EE0002E04DBB34502DDCD
:1009C00001A8805D00E03020D4E901219047206A31
:1009D000401C2062761CAAF101005FEA000A0AD1DD
:1009E00000F098F8C0680168405CD4E901219047A4
:1009F000206A401C2062281EA5F10105DCDC07E00E
:100A0000D4E9012118F8010B9047206A401C2062AC
:100A1000381EA7F10107F3DC2046AFF30080032066
:100A200011B041E601694A1C02610878704700B5BF
:100A30008FB0CDE901310021059105497944CDE917
:100A4000031011466846FFF77DFC0FB000BD0000A3
:100A5000E5FFFFFF0A6802F8010B0A60704710B556
:100A6000436913B1AFF3008001E0FFF79FFC012061
:100A700010BD127800F124010A7000224A70012290
:100A8000EDE711684FF0FF32E9E70000074B70B562
:100A90000D467B44FFF7CBFF0446284600F036F9AD
:100AA00010B14FF0FF3070BD204670BD2F490000DF
:100AB00010B5203AC0F00B80B1E81850A0E81850EB
:100AC000B1E81850A0E81850203ABFF4F5AF5FEA3B
:100AD000027C24BFB1E81850A0E8185044BF18C9E0
:100AE00018C0BDE810405FEA827C24BF51F8043B87
:100AF00040F8043B08BF7047D20728BF31F8023BDB
:100B000048BF11F8012B28BF20F8023B48BF00F86E
:100B1000012B7047004870478C04002030B5B0F1BD
:100B20000A0271F100034FEA900E4EEA817EB0EBAB
:100B30000E0061EB91014FEA101E4EEA017E10EBB0
:100B40000E0041EB11114FEA102E4EEA016E10EB30
:100B50000E0041EB11214FEA104E4EEA014E10EB10
:100B60000E0041EB1141401841F100014FEAD00065
:100B700040EA41704FEAD1014FEA810444EA90749F
:100B800010EB800544EB01046D1944EB0404521B87
:100B9000A3414FF0000348BF0A3200D530BD401CCE
:100BA00041F1000130BD00002DE9F0411F4604462F
:100BB00003260168072A01F4006004DB08B116A5CA
:100BC00005E016A503E008B115A500E015A521F084
:100BD00010002060A069C01EA0610FB1401EA0617E
:100BE0002046AFF300804FB1D4E901213846904749
:100BF000206A401C2062C01C206206E0206AFAE7DE
:100C0000D4E9012115F8010B9047761EF8D2204651
:100C1000AFF30080BDE8F0814E414E006E616E0082
:100C2000494E4600696E66002DE9F047814616463A
:100C30008AB0354878440DC88DE80D0032487844B4
:100C4000801C03AC0DC884E80D0041F69B300844BD
:100C5000372190FBF1F290FBF1F5A5F1800501FB46
:100C600012041B3C02D56442012000E00020DFF8A2
:100C700098A080460027FA44AAF1BE0A0EE0E007D9
:100C80000AD03246684607EB470101230AEB81018F
:100C900005F09DF98DE8070064107F1C002CEED153
:100CA000194F7F44AE3F19E0E80715D007EB041059
:100CB0000DF1180A90E80E008AE80E00C068F042B4
:100CC00001D1981908903246012306A903A805F01E
:100CD0007EF903AB83E807006D10641C002DE3D19F
:100CE0004FF0010332466946B8F1000F03A802D065
:100CF00005F058F901E005F06AF9C9E90001C9F801
:100D000008200AB0BDE8F087908D0000007B00F05D
:100D10008000704710B542485421FFF7F2FB41486C
:100D20005421FFF7EEFB40485421FFF7EAFB3F490F
:100D30003B483C4A3F4B08603D490A603A491960CC
:100D4000531C0365481C1065012008653B48344A64
:100D500039A1784400F0EEF820B9384878440A38D0
:100D600000F08DF937482F4A35A1784400F0E2F8B9
:100D700020B9344878440A3800F081F932482A4AC8
:100D80002FA1784400F0D6F820B92F4878440A38CB
:100D900000F075F940232248DC000021224600F0D3
:100DA000A5F820B125487844543800F068F91D486A
:100DB00022464023002100F099F820B121487844D0
:100DC000543800F05CF9184822461023002100F046
:100DD0008DF8002806D01C487844BDE810405638ED
:100DE00000F04DB910BD104870B5006D20F0010441
:100DF0000B4800F015F90B4800F012F90A4800F012
:100E00000FF909E0206D20F00105204600F008F9F7
:100E1000204600F044F82C46002CF3D170BD0000B1
:100E200070030020C4030020180400205400002098
:100E3000580000205C00002072000000602B0018A9
:100E400077000000DE2B00189A2A0018004870472F
:100E50006C0400207546FFF7F9FFAE4605006946B1
:100E6000534620F00700854618B020B5FFF736FA44
:100E7000BDE820404FF000064FF000074FF000089B
:100E80004FF0000BAC46ACE8C009ACE8C009ACE8D8
:100E9000C009ACE8C00921F007018D46704770B564
:100EA0000446051F00F032F90068002C14BF4468A6
:100EB00070BD002C18BFAC423CBF20466468F8D31C
:100EC00001680A18AA4218BF456003D12A6805467E
:100ED0001144016028684119A1421CBF6C6070BDBB
:100EE0006168696021680844286070BD70B5C46895
:100EF000A50713D0650211D4B2F5807F09D0B2F5F1
:100F0000007F06D0B2F5806F08D1012300F12401E3
:100F100006E05D1E6FF07F46B54201D3012070BD33
:100F20000161C361416024F470611143C16000201C
:100F300070BD00002DE9F0410C46074616461046EC
:100F400000F06EF82078611C61280AD0722802D067
:100F500077283CD102E00125002405E00225042485
:100F600002E0082448F2020511F8010B2B2806D0F4
:100F7000622809D011F8010C74280AD00BE045F062
:100F8000030544F00204EFE745F0040544F00104D2
:100F9000EAE744F010043846214604F006F9411C03
:100FA00015D00021316171604FF40071F560F1617D
:100FB0007061200704D530460222002100F020F99C
:100FC000306D40F0010030653046BDE8F081002012
:100FD000FBE72DE9F0410D460646104C206DC10798
:100FE00004D0410804D020F00104F7E722460EE0C7
:100FF000542000F0D6F807000ED0206D47F0010114
:101000000843542120653846FFF77BFA3A462946C3
:101010003046BDE8F0418DE70020D6E770030020A0
:101020002DE9F04704464FF000094FF0FF37C5683F
:10103000D4E90486A80707D0204600F091F930468D
:1010400004F0ACF8002802DA3846BDE8F08728053D
:1010500002D54046FFF723FF4C212046FFF751FA07
:10106000206D20F0010020654846EEE710B50446EB
:10107000AFF300802046BDE81040FFF71BB910B564
:1010800000F0B8F9BDE8104000F0AEB90000000073
:1010900030B44FF0013C50F8042B51F8043BCCFA2B
:1010A00052F4D51A20D1FCB950F8042B51F8043B66
:1010B000CCFA52F4D51A17D1B4B950F8042B51F820
:1010C000043BCCFA52F4D51A0ED16CB950F8042B6B
:1010D00051F8043BCCFA52F4D51A05D1002CDAD0E1
:1010E00030BC4FF00000704729BAB1FA81F111F01D
:1010F0001801D1F120008440F2D1CA40CB4012F057
:10110000FF0213F0FF0330BCD01A7047004870474D
:1011100074040020704770477047704738B5044624
:101120000A4600206946AFF30080002808BF38BD9A
:1011300002460099204600F07EF9012038BD0120CA
:1011400000F0CDB9F8B5AFF30080054600200C469D
:10115000102000BF0646A819A0420DD932466946A4
:101160000020AFF30080070008BF00F0B8F9009836
:10117000A04218BF0546C419FFF7C8FF056007461F
:10118000F01D20F007004619284600F04DF9B44242
:1011900008BFF8BDA21B31463868BDE8F84000F032
:1011A0004AB970B50646FFF7B1FF056806F10B00B6
:1011B00020F00704B4429CBF002070BD2B466A6833
:1011C000BAB11068A04210D304F1080188423CBFB4
:1011D0005068586007D35168101941601168091BA5
:1011E000016058601460101D70BD13465268002ADB
:1011F000E7D121462846FFF791FF0028DED170BDD8
:101200002DE9F041044616460D464769007B8007EC
:101210002ED0384603F0C7FF50BB3EB3012E02D09C
:10122000022E25D104E0204600F01FF905441DE000
:10123000384603F0B6FFE168002841F01001E16094
:1012400005DA204600F058F80120BDE8F081C90316
:101250000BD56268E16A914200D81146A269114437
:101260002269891A814200DD08460544002D01DA11
:101270000220EAE7E16A6068E268814206D29103EF
:10128000E06203D522F4003141F01002A669002784
:10129000AE4213DCE16A814201D90B4600E003460D
:1012A00003EB060C2369ACEB030CAC4506DD814275
:1012B00001D98C4600E084469C4505D1A760276093
:1012C00042F02000A5620DE0AD1BE669AE1B814235
:1012D000A66000D90846C01A281A20605819606014
:1012E00022F0200003490840E060002084F84870A4
:1012F000ABE70000BFCFD7FFC16821F4001141F078
:101300008001C16000218160016070472DE9F047D4
:10131000814614460E464FF0FF383248D56857696B
:10132000054209D03846A16903F041FF002811DBCE
:101330002C48C0430540E5602B46324649463846B6
:1013400003F037FFA16920F00042B21A11440028CF
:10135000A16103D02046FFF7CFFF4046BDE8F087EC
:1013600070B504460569C06A6168884200D80846BD
:10137000E16821F42011E160C90312D5A84208D028
:101380002246411B2846FFF7C1FF10B14FF0FF3046
:1013900070BD0020E562C4E90150E06820F48030AF
:1013A000E060002070BD10B50446C06820F0200049
:1013B000E060A16AA06988420DD02046FFF7D0FF07
:1013C000E06820F4405040F01000E060A06AA061A6
:1013D0002069E062606044F24001E0688843E060B8
:1013E00010BD000010000200002801D003F0D8BE9C
:1013F0007047000010B5014602A000F057F8012028
:1014000010BD000053494752545245443A2052659A
:101410006469726563743A2063616E2774206F702B
:10142000656E3A200000000000210160C0E9011053
:10143000704710207047034640688C46002818BF4C
:1014400088423CBF03464068F8D318681844884275
:1014500007D00CF1030020F00700001D411A521ABA
:101460000146081D0A60FFF71ABD10B50146C268A3
:10147000900703D0900607D5886A0AE000F036F896
:1014800001210160881E10BD8B69486818440B69F2
:10149000C01A91F848301BB191F84910401A10BD9C
:1014A0001103FCD50028FADD401E10BD70B50546BD
:1014B0000C460A2000E06D1C03F07DFE35B1287853
:1014C0000028F8D102E0641C03F075FE14B1207806
:1014D0000028F8D1BDE870400A2003F06CBE10B5BA
:1014E00000F008F8BDE81040FFF77EBF00487047E5
:1014F0006C04002010B5012805D0002103A0FFF7DF
:10150000D5FF012010BD09A1F8E70000534947525B
:10151000544D454D3A204F7574206F6620686561C3
:1015200070206D656D6F7279000000003A2048658B
:101530006170206D656D6F727920636F7272757066
:101540007465640070B52DED028B002963D0334DB6
:101550000026465489B205F11404224604F072FABA
:1015600008B16E6057E0B5F82500E98A081AA5F8B9
:10157000251018BF012068604DD005F132002146CA
:101580000F22FEF779FF95F8200095F821100A093F
:10159000042801F00F012A70697004D0052805D1D4
:1015A0000021012007E00020002104E00738B0FA04
:1015B00080F040090146A970A860A86908F01EF9EA
:1015C00041EC100B07F00CFDE868B0EE408AF0EE3D
:1015D000608A08F013F902460B4651EC180B08F02C
:1015E0004DF9B0B9E86908F009F941EC100B07F0C2
:1015F000F7FC2869B0EE408AF0EE608A08F0FEF849
:1016000002460B4651EC180B08F038F908B90120D6
:1016100000E00020A870BDEC028B70BD80010020AE
:1016200010B5174C4FF4E131204602F08FFF2748E8
:10163000002301688288204600F08EFC20464FF48B
:10164000E13103F087F8204600F000FD2048012139
:1016500005F024FE0B480C4A40F224414368262042
:101660009847204640F22441012206F03CFB2046E8
:10167000012106F0F9FABDE8104004F02DB900BFD1
:1016800000440040F40200208D16000870B50E489A
:101690000E4D0068E868286102F0AEFB95ED041A73
:1016A0000C4985ED030A0A4830EE411A0A6985EDB6
:1016B000051AAC88466821469047A01B81B228686D
:1016C000BDE87040FFF73EBF0444004050030020D7
:1016D000886002400C9C0008F0B587B003201D4CC8
:1016E00040210022012300270090194804F501350C
:1016F000C6682846B04728460621092205F068FF3B
:1017000016489FED150A002102688568204690471B
:101710001348ADF8147002A902902046049706F011
:10172000F5F82046082106F02FF92046012106F0A1
:10173000A9F82046012106F0C0F82046012106F054
:10174000B0F89FED080A20460021A84707B0F0BD79
:10175000289C00080018004000007A44509C0008B3
:1017600060000100000000002DE9F04389B0074649
:101770009B488946402198461646FEF7C2FEAC4873
:101780004021FEF7BEFE0820012105F0A5FF4FF025
:101790000070012105F0C0FF03201E4C07A907902F
:1017A00062480890204605F0CBFE20460021092221
:1017B000002505F00DFF20460121092205F008FF54
:1017C0004FF00120A4F5D43404A9CDF816001098E8
:1017D000ADF81A508DF8120020468DF813708DF870
:1017E00014608DF81590ADF8108004F056FF40F2AB
:1017F0000110ADF80C006846CDE90055029504F0E3
:101800002FFE20460221012204F03EFF09B0BDE870
:10181000F08300BF000C024070B586B0DE4C0221A0
:10182000204604F0A1FE30B32046022104F0C4FD9E
:1018300001AA20460021002604F0B9FF0199684C56
:10184000F5B20F2D17D854F825000136B0F9002055
:101850009142F5D1014611F8082F022A0BD30369F2
:1018600033B1416801A8984754F8251011F8082FA2
:1018700042F00100087006B070BD00BF2DE9F047CE
:101880008AB0074655488A46402198461646FEF7D4
:1018900038FE66484021FEF734FE022001214FF059
:1018A000010905F019FF4FF08060012105F034FFB8
:1018B0004FF440501E4C08A908901C48099020463F
:1018C00005F03EFE20460C21092205F081FE20464F
:1018D0000D21092205F07CFE4FF001200025A4F522
:1018E000CE3405A9CDF81A001298ADF81E508DF827
:1018F000160020468DF817708DF818608DF819A025
:10190000ADF8148004F0C9FE0A48CDE90055ADF8E1
:101910000890CDF80A00684604F0A2FD2046102188
:10192000012204F0B1FE0AB0BDE8F0870203000115
:10193000000402400E00010110B586B0C64C102113
:10194000204604F011FE18B32046102104F034FDA7
:1019500001AA2046012104F02AFF019BDFF87CC088
:101960000022D1B20F2913D85CF821400132B4F91A
:1019700000008342F5D1227A022A09D342F0010005
:1019800020725CF82100026912B1416801A89047F9
:1019900006B010BDB14A90420ED0AF4A90421AD163
:1019A000DFF838C00022D3B20F2B14D85CF8230024
:1019B00001320028F7D10AE0DFF824C00022D3B2B8
:1019C0000F2B08D85CF8230001320028F7D1012042
:1019D0004CF8231070470020704700BF40060020DD
:1019E000400500209D4A90420ED09B4A90421AD159
:1019F000DFF838C00022D3B20F2B14D85CF82300D4
:101A000001320028F7D10AE0DFF824C00022D3B267
:101A10000F2B08D85CF8230001320028F7D10120F1
:101A20004CF8231070470020704700BFC00600200C
:101A300080060020017941F001010171704700002A
:101A400070B50C468449884202D08449884228D126
:101A50008249834B834E884208BF1E46102C20D8F3
:101A600006EB840555F8040F10B10179C90717D1A9
:101A7000104601F067FB0028286001D00021416476
:101A8000316804F2012203F00FFA2968002039B10D
:101A9000C8632968002908BF70BD00200864286851
:101AA00070BD002070BD00BFF8B50C4624491D462E
:101AB000884202D0234988423FD12249224B234EFB
:101AC000884208BF1E46102C37D806EB840757F80B
:101AD000040F10B10179C90730D1104601F032FB73
:101AE0000028386001D000214164316804F20122ED
:101AF00003F0DAF9164868219FED160ADFED160AA1
:101B00009FED161A14FB0106304601F055FD3868AA
:101B100000B1C6637DB1124868219FED0E0ADFED6A
:101B20000E0A9FED0E1A14FB0104204601F044FD3D
:101B3000386800B10464386800E0002001B0F0BDEE
:101B40000068004000640040F83600208C37002018
:101B5000F82900200000484300FF7F470000FA45B5
:101B6000F81C00203C4A904202D03C4A904211D1DD
:101B700010290FD8394ADFF8E8C03A4B904208BF25
:101B8000634603EB8100406820B10179C90708BFB3
:101B90000020704700207047006400402E4A9042A9
:101BA00002D02E4A904215D1102913D82B4ADFF8C3
:101BB000B0C02C4B904208BF634603EB81004068E5
:101BC00040B10179C90705D0016C002908BF7047F1
:101BD00080ED110A704700BF1F4A904202D01F4A91
:101BE000904219D1102917D81C4ADFF874C01D4B38
:101BF000904208BF634603EB8100406860B1017901
:101C0000C90709D0016C002908BF704790ED111A6F
:101C100031EE000A80ED110A704700BF0E4A904273
:101C200002D00E4A904215D1102913D80B4ADFF882
:101C300030C00C4B904208BF634603EB8100406804
:101C400040B10179C90705D0C16B002908BF7047B1
:101C500080ED110A704700BF00680040006400403A
:101C6000F83600208C370020B0B50A4C0A4D2046CB
:101C7000294605F0D5FB60B1084803F00FFB20466C
:101C8000294605F0D7FA20462946BDE8B04005F0C0
:101C9000EBBAB0BDA0600240008020209807002071
:101CA00003480449044A054BD0F808C04420604763
:101CB000F402002088640240217400086972000860
:101CC00010B51B4A4B4C02F57E73984214D2204447
:101CD000182300F58060B0FBF3F0F02303EAC003A3
:101CE00000F00100404200F006000343B3F1200081
:101CF00034BF1846043215E020441823B0FBF3F03B
:101D0000F02303EAC00300F00100404200F00600A7
:101D10000343B3F1200038BF1846064B38BF02F525
:101D200080631A4601FA00F011680843106010BD84
:101D3000086002400C6402402DE9F04114468846D8
:101D4000064694B151480025071D0CE057F8040CD5
:101D50003968026802F060628A4202D105F056FBDF
:101D600030B10C370135012DF0D90020BDE8F081EC
:101D700057F8040C31464246234600F0C8F857F89D
:101D8000040CBDE8F08100BF10B5194A194C02F5EA
:101D90008063984213D22044182300F58060B0FB82
:101DA000F3F0F02303EAC00300F00100404200F02A
:101DB00006001843202824BF0432203811E02044B4
:101DC0001822B0FBF2F0F02202EAC00200F001009B
:101DD000404200F006001043202826BF2038064A63
:101DE0001A4601FA00F01168084018BF012010BD22
:101DF00000600240009CFDBF046402402DE9F04FEA
:101E000091B08A4681464FF480000121019205F08D
:101E100063FC02A81D4D00244FF0000B00F12C07BD
:101E20002DE00BEB4B0655F8260005F043FA05EBC9
:101E30008608D8F8000005F0E9FA0028F9D18021D9
:101E4000D8F804000591CDE9039A019906914FF461
:101E5000007107914FF48061CDE908144FF480318F
:101E6000CDE90A440C910290C7E90044C7E9024455
:101E700002A9D8F8000005F023FB0BF1010BBBF120
:101E8000020FCED1012011B0BDE8F08FDC0200209E
:101E9000B0B50D460021044605F000FA206810F0A8
:101EA000010FFBD1A9B2204605F036FB20460121E7
:101EB000BDE8B04005F0F2B92DE9F8431D46914662
:101EC00088460446FDB12046002105F0E7F94FF4AD
:101ED000FA614FF6FF7620460F4605F097FA374233
:101EE00002D0791E0028F6D138040CD020463D21BE
:101EF000C4F80890C4F80C806560FFF7E1FE204646
:101F0000012105F0CBF9002001B0BDE8F083F8B560
:101F10001D4617460E46044625B1204605F076FAC2
:101F2000012801D1002513E0A760E66065603D212E
:101F3000206810F4807F1EBF206820F4807020602D
:101F40002046FFF7BDFE20460121012505F0A6F938
:101F5000284601B0F0BD00002DE9F0438FB00F46D8
:101F6000674905463748984691468D4211D06749E2
:101F70008D4211D063498D4212D063498D4212D0F7
:101F800031498D4214D05D498D4256D100F1600433
:101F900010E000F5806408E04FF0006604460BE0B6
:101FA00000F1300401E000F178044FF0206603E016
:101FB00000F58C644FF00066216811F0010F3CD1F0
:101FC00000F57670012184422CBF4FF480004FF45D
:101FD000001005F081FB204605F06CF9204605F065
:101FE00015FA0028FAD100204FF480610096CDE95F
:101FF0000270CDE90490079006914FF4807108902B
:1020000009914FF400310E90CDE90C00CDE90A1092
:10201000281D69460190204605F052FA28464021C5
:102020000122012605F02CFEB8F1000F06D0204653
:102030000121012605F032F900E0002630460FB0FC
:10204000BDE8F083286002400010014070B590B0F8
:102050002A49044628488C420ED029498C4210D087
:1020600028498C4210D028498C4212D027498C42F2
:102070003ED100F1480501E000F190054FF0006607
:102080000AE000F5926501E000F118054FF02066C6
:1020900002E04FF020660546296811F0010F27D1B4
:1020A00000F57C70012185422CBF4FF480004FF475
:1020B000001005F011FB40204FF4806104900020D7
:1020C00001960690089007914FF40031CDE9090080
:1020D0000F90CDE90D00CDE90B1001A9284605F0C0
:1020E000EFF9204680210122012505F0C9FD00E01D
:1020F0000025284610B070BD10600240004400402A
:102100000014014000780040007C0040004800407E
:102110000848094A094B0121D0F808C00620604749
:102120000448054A054B4FF48071D0F808C01720C9
:10213000604700BFF4020020297500081D750008E3
:102140003749FA4891ED000A0269FA480221B1EED6
:10215000400A10470000000070B52DED028B304C96
:10216000304D6069B0F9240000EE100AB8EEC00AE4
:1021700085ED030AE88838B92B489FED2C0A022127
:102180000269EC489047E88801280BD1284E307846
:1021900060B1A8880130A88000B2312804DCFFF7C4
:1021A000CFFF0AE0E9682DE063282FDC1E4894ED9C
:1021B000000A02210269DF48904794ED060A95ED76
:1021C000038A38EE400A10EE100A07F017FB41ECC4
:1021D000100B06F005FF9FED101B51EC100B53EC9C
:1021E000112B07F04BFB18EE101A48B9307838B9AC
:1021F00028890130288100B2042803DB01203070D7
:1022000000202881A161BDEC028B70BD00203070E0
:10221000A880D2E700BF00BF000000407A6A7F3F7D
:1022200090000020000600200003002000000000B5
:10223000000700202DE9F8432DED068B01F02AFA66
:102240009FED198A9FED199A9FED19AA4E4F07F13C
:102250001800B0EE480AF0EE490AB0EE4A1A01F052
:10226000ABF91448144E1549154C164DB0EE480AFA
:10227000F0EE490AB0EE4A1AC7E9066039623C66D8
:10228000FD673F4F8046894607F1180001F094F939
:1022900007F1180080E840033C66FD67BDEC068B43
:1022A00001B0BDE8F08300BF0000704200FF7F472F
:1022B000000020430AD7A33B8FC2753D0AD7233CB9
:1022C0000000A041B9310008B0B52B482B4C017873
:1022D00089B30121052201702A48418801314180DA
:1022E00089B2B1FBF2F202EB82028A1A04D10288AF
:1022F0003C2A38BF0A32028042F21072204D9142CD
:1023000084BF0021418001881F482982018203F097
:102310001DF9284603F01AF91B48B0F91200C0F560
:102320004871204605F03DFC1548B0F91200C0F593
:102330004871204613E013480021114D01601248F6
:102340002982018203F002F9284603F0FFF82046B3
:102350004FF4487105F025FC20464FF4487105F014
:1023600022FC0A4D2046296805F01FFC29682046FA
:10237000BDE8B04005F01BBC963A002000040140C7
:10238000980700200006002008070020643A00207B
:1023900010B50B4C9FED0B0ADFED0B0A9FED0B1AEE
:1023A0006068006C01F072F9A0689FED090ADFED2A
:1023B000090A9FED091A006CBDE8104001F066B9EA
:1023C0000001002000C0DA450000FA430000C842C6
:1023D0000000FA450000FA4400007A44F8B52DEDFB
:1023E000028B224E224C072104220123B56820468D
:1023F000A847204D726C00216860904768689FED87
:10240000218A1D491D4F9FED1E0A9FED1F1A4FF097
:102410007C52006CF0EE480A8264C0E9141701F0A7
:1024200035F96868042102220123C7642046B76891
:10243000B847726C0021A8609047A86813499FEDC7
:10244000140ADFED140A144A144CB0EE481A006C5A
:102450008264C0E9141401F019F9D5E90101CC64D2
:10246000C5E90F01BDEC028B01B0F0BD00030020F7
:102470000064004000010020D2537B4100409C4595
:1024800000D0844600007A440000484400004040E8
:102490000080BB4500007A45CDCC4C3E0000FA459B
:1024A0002DE9F04786B0214D214E224C072196EDB3
:1024B000060A6A692046904796ED070A6A6920462F
:1024C00004219047D6E90114C86A8E6C07F096F98A
:1024D0008046E06AA76C894607F090F9824630464C
:1024E0000D4607F08BF9064638460C4607F086F98C
:1024F00044EC116B104C41EC100B45EC12AB0FA1EE
:1025000042464B468DED002B8DED021B8DED040BED
:102510002046FDF701FFC3B20C480E4A2146D0F811
:1025200000C00B4806B0BDE8F0476047000300203C
:1025300000010020006400408444002025662C2512
:10254000662C25662C25660D0A0000000C9C0008F0
:10255000586002400448004010B5284A01461388DC
:10256000B3F5487F13D326480022284B284C8168B6
:102570004A64CA62096CC1E9004326494068426462
:10258000C262254A006CC0E90021012033E0DFF877
:1025900070C0DCF804E0BEF93400B0F5AF64B8BF39
:1025A000C0F5AF640020172C4FF00004B8BF5C1CCE
:1025B00014800A22B1FBF2F202EB8202A1EB42018B
:1025C000012918D1BEF836004FF6FF71884211D0AC
:1025D000BEF938009FED0B0A9FED0B1AC0F5AF60F6
:1025E00002EE100AB8EEC22A22EE000A20EE010A1C
:1025F0008CED060A00200249087010BD2808002052
:10260000000100200000343D35FA8E3C0000FA4401
:102610000080BB4500007A4400D0844610B52DED03
:10262000028B0D4C9FED0E8A9FED0C0A9FED0D1A4B
:102630006068F0EE480A006C01F028F8A0689FED91
:102640000A0ADFED0A0AB0EE481A006CBDEC028BF4
:10265000BDE8104001F01AB80001002000D0844607
:1026600000007A44000048440080BB450000FA4462
:10267000F8B5B24D287806284CD1B1480078062824
:1026800041D1B04841680A7902F0FB020A718068C2
:10269000017901F0FB010171B348B2EE0E3AB0F9D5
:1026A0000210B0F90020A64800EE102A01EE101A20
:1026B0000029B8EEC04AB8EEC15A90ED010A90ED7B
:1026C000022A00D549429FEDA96A9FEDA91A84EE1E
:1026D000034A85EE033A002A00D5524284EE064AA8
:1026E000142A83EE063AB8BFB0EE414A1429B8BFA7
:1026F000B0EE413A30EE041A32EE030A80ED011AD0
:1027000080ED020ABCE08F4C0620E16E8847206F06
:10271000804728788A4E58B93178884208D0894C49
:102720000120E0600620E16E8847A06F804728788E
:10273000012814D1307801280AD1824841680A79E9
:1027400002F0FB020A718068017901F0FB013DE0B3
:102750007C4C0620E16E8847A06F804728780228CD
:1027600006D13178884203D07648806F8047287838
:10277000032814D1307803280DD1724841680A79B2
:1027800002F0FB020A718068017901F0FB0101711E
:102790006D48047832E06B48806F804728780428C1
:1027A00006D13178884203D06648806F8047287808
:1027B000644F072879680A790AD13B7843B142F01F
:1027C00004000871B868017941F00401017112E058
:1027D00002F0FB0206280A71B9680A7902F0FB02CE
:1027E0000A7108D858490C78DFE800F03C059308D6
:1027F0000808040050E796ED011A41E053480068CC
:1028000008B3504C606F80475148554F9FED510AB7
:102810009FED542A41688068D4E9012397ED003A7E
:1028200092ED0B1A04EE101A04EE001A03EE021ACF
:1028300093ED0B2A03EE100A86ED011A03EE002A2F
:1028400086ED022A1CE03F4FB86F8047F96E2046A4
:10285000884797ED030A96ED011A9FED3F2AB8EEDF
:10286000C00A09E097ED030A96ED011A9FED3A2A96
:102870003A48B8EEC00AB06000EE021A86ED011ABE
:10288000304890ED042AB4EEC21AF1EE10FA08DADC
:1028900090ED050AB4EEC01AF1EE10FA04DC012145
:1028A00001E04FF0FF31C16025499FED320A9FEDF5
:1028B000334A314A324B91ED023AB4EEC03AF1EE6E
:1028C00010FAB4EEC43AA8BF01F10802F1EE10FA12
:1028D000B4EEC21AD8BF1346F1EE10FA1A6800EE31
:1028E000102A8A6002DD12EE102A09E090ED052A16
:1028F0004A68B4EEC21AF1EE10FAB8BF12EE102A0E
:102900002B78806E4A6000EE902A0B70BDE8F8408C
:1029100000470E480068002896D0786F80470C4822
:102920009FED0C0A41688068D7E9012392ED0B1AEC
:1029300002EE101A02EE001A7AE700BFDA02002057
:102940002C060020000100208001002088010020CA
:10295000B20100204DF30E3DD2537B3C3333333F65
:10296000C40000207E73DABB700000200000A54484
:102970000000000063149D3DF49B00087C59C43F97
:10298000F09B00084548C0ED060A80ED070A704735
:10299000424880ED070A7047404880ED060A7047BC
:1029A0009FED141A14489FED152AB4EEC10AF1EEFA
:1029B00010FAB8BFB0EE410A90ED041AB4EEC20AA4
:1029C000F1EE10FAB4EEE01AD8BFB0EE402AF1EE04
:1029D00010FA80ED072A0ADB90ED050AB4EEE00A52
:1029E000F1EE10FAC8BFF0EE400AB0EE601A80EDCA
:1029F000061A704763149D3D000100207C59C43FB6
:102A0000062888BF7047DFE800F004090E13181D80
:102A100022001348016A90ED090A1CE01048416A3F
:102A200090ED0A0A17E00E48816A90ED0B0A12E059
:102A30000B48C16A90ED0C0A0DE00948016B90ED5E
:102A40000D0A08E00648416B90ED0E0A03E00448C9
:102A500004499FED050A4161014880ED040A704771
:102A6000000100207C5944C01D43934010B50B4C1D
:102A70009FED0B0ADFED0B0A9FED0B1A6068006CEF
:102A800000F004FEA0689FED090ADFED090A9FED42
:102A9000091A006CBDE8104000F0F8BD00010020EC
:102AA00000C0DA450000FA430000C8420000FA45C1
:102AB0000000FA4400007A44FEB51C4615460E4656
:102AC000074600F06BF8022001A98DF8080008986D
:102AD00001968DF80A508DF8090038468DF80B40A4
:102AE00004F02EFDFEBDBCB50C46054600F056F8C0
:102AF000032069468DF80400002000948DF807003B
:102B0000284604F01DFDBCBD0AB104F098BD04F0D8
:102B100094BDFEB51C4615460E46074600F03EF82D
:102B200009988DF8085001968DF80A4001A98DF892
:102B3000090008988DF80B00384604F001FDFEBD31
:102B4000FEB51C4615460E46074600F027F8002045
:102B500001A98DF8080001968DF80A0038468DF815
:102B600009408DF80B5004F0EBFCFEBDFEB51C4691
:102B700015460E46074600F011F8012001A98DF810
:102B80000800089801968DF80A508DF8090038461B
:102B90008DF80B4004F0D4FCFEBD00001E49084433
:102BA0004FEAB0200A2888BF7047DFE800F0060A25
:102BB0000E12161A1E2230262B000120012104F0CD
:102BC0008BBD0220012104F087BD0420012104F007
:102BD00083BD0820012104F07FBD1020012104F0F5
:102BE0007BBD2020012104F077BD4020012104F0AD
:102BF00073BD8020012104F06FBD4FF400700121EE
:102C000004F06ABD4FF48060012104F065BD4FF40B
:102C10008070012104F060BD0000FEBF4900032365
:102C200003FA01FC036802FA01F123EA0C030360D2
:102C3000026811430160704710B5794C01460122CA
:102C40000223204603F056FB204603F0AFFB20464C
:102C5000022103F01BFB0028F9D02046BDE81040FC
:102C600003F010BBA0B180B5DFF82CC00BE010F86A
:102C700001EBD3B202F47F42013983EA0E033CF840
:102C8000133083EA12220029F1D1BDE8804001E02F
:102C90004FF6FF7290B270477A9C00081CB5202056
:102CA0000121012404F018FD0320694600906E48BC
:102CB0000190034804F044FC0248446004601CBDD9
:102CC00000140240808242422DE9F0418846344996
:102CD0001C46164601EB8007384609E036B16968A4
:102CE0004046B04710B1A86800B1804705F10C001C
:102CF0000568002DF2D105E014B169684046A0478F
:102D000005F10C073D68002DF6D1BDE8F08100BF4C
:102D1000B0B523485B21FDF7F4FBDFF82CE0DFF8CA
:102D20007CC00020802808BFB0BDDEE90032DEE9AB
:102D3000021405014CF805300CEB00130130C3E917
:102D40000121DC60EEE700BFE09B0008B0B5F2B106
:102D500000281CDBDFF844E000239DB27F2D07D85C
:102D60002C0101331EF80440F02CF6D10EEB051CAB
:102D70008CF80000CCE90112094A52F8201049B140
:102D80000846C1680029FBD1C0F80CC004E04FF030
:102D9000000C01E042F820C06046B0BD843C002039
:102DA000183B002070B58CB001200121012504F0F2
:102DB00093FC4FF48070012104F0BEFC0320184CFA
:102DC0000AA98DF82C0008200A9004F560408DF8BF
:102DD0002F5004F0B5FB4FF48070012104F0BCFCCF
:102DE0004FF480700021002604F0B6FC4FF48030D0
:102DF0000696CDE90866079006A803F02BFA694607
:102E000020460096ADF80460029604968DF81450A2
:102E100003F046FA2046012103F010FA0CB070BD11
:102E20000020014080B50320FFF706FF32284FF055
:102E30000001024888BF0121017080BD2A080020DE
:102E40001CB54020012104F047FC4FF4FF70074CF3
:102E50006946009004480190204604F071FB6069C7
:102E600040F4FF7060611CBD0103000100180240C6
:102E7000F8B51648164C03254FF4006100220123D3
:102E8000009546682046B04704F580604FF48041C5
:102E9000002201230095B0470E4F00954FF40051DA
:102EA0000022012307F57B752846B04738684FF4A8
:102EB000005140F480403860606920F40060606137
:102EC0002846BDE8F84004F0B8BB00BF289C0008C5
:102ED00000100240141402402DE9F843B24D0024C2
:102EE00004E028195021FDF70CFB5034B4F5206F95
:102EF000F7D1914E9021301DFDF703FB8F4C9021AF
:102F0000201DFDF7FEFA2848002740F2FF184FF079
:102F1000080900F58061306089482160C5681BE0C0
:102F2000B7FA87F0142F06EB07014FEA50104FEA6B
:102F3000402208BF48EA4022282F08BF02F2FF22A1
:102F400021F8442F01F10C008860087969F35F00D3
:102F500008713068A8471437502FE1D1002640F29D
:102F6000FF180827502E08BFBDE8F883B6FA86F090
:102F7000142E04EB06014FEA50104FEA402208BF1E
:102F800048EA4022282E08BF02F2FF2221F8442FEF
:102F900001F10C008860087967F35F000871206810
:102FA000A8471436DEE700BF00640040F8B57E4D48
:102FB0000024002643E0AF19387900F0030103290B
:102FC0003CD140071ED4386CF0B1D7ED0B0A97ED19
:102FD000110A00F06DF9B0EE401A97ED130AB4EE45
:102FE000C10AF1EE10FA08DBB1EE400AB4EEC01AE5
:102FF000F1EE10FAA8BFB0EE410AF86B60B1D7ED60
:103000000A0A07E0BC6419E0F86BB8B1D7ED0A0A08
:1030100097ED110A00F04CF997ED131AB4EEC01AAF
:10302000F1EE10FA08DBB1EE411AB4EEC10AF1EE8E
:1030300010FAA8BFB0EE401A87ED121A5036B6F556
:10304000206FB8D13C4C0025002627E004EB860019
:10305000406890ED120A4279BDEEC00A022A10EED5
:10306000100A03D3C0F30721052A09D1B8EEC00A1C
:1030700002F0CAF8BDEEC00A10EE100AC0F3072134
:10308000B20805F006030235013602EB820204EBBA
:1030900082025032D15443F001015054102ED5D148
:1030A000264D0026002727E005EB8700406890EDBD
:1030B000120A4279BDEEC00A022A10EE100A03D3AA
:1030C000C0F30721052A09D1B8EEC00A02F09CF826
:1030D000BDEEC00A10EE100AC0F30721BA0806F0D0
:1030E00006030236013702EB820205EB8202503200
:1030F000D15443F001015054102FD5D11048066926
:1031000004F14400B04704F15800B04704F16C00EA
:10311000B04704F18000B04705F14400B04705F125
:103120005800B04705F16C00B04705F1800031460A
:10313000BDE8F840084700BFF83600208C37002073
:10314000F89B00082DE9F041174F80460020C1B2DE
:103150001F2925D88A0052FA80F2013007EB0216A7
:1031600016F8042F12F0010FF1D101EB81044C216C
:1031700007EB0415281DFDF7C4F920013D500B484D
:1031800085F80580E8644FF6FF70E886307810F027
:10319000010F02BF00F0FA0040F00100307000E0C3
:1031A00000252846BDE8F0812C08002000803B4621
:1031B00000B181617047000070B52DED068B0446AB
:1031C000B0EE408A16460D4694ED00AA38EE4A0A43
:1031D00010EE100A06F012FB41EC100B05F000FF98
:1031E000B0EE409A3046F0EE609A06F093F8024650
:1031F0000B4651EC190B06F048FB58B9B4EEC8AABF
:10320000F1EE10FAA8BF764200EE106AB8EEC00ADE
:103210003AEE008A4FF6FF7001EE105A9FED0F0A4A
:103220002844B8EE411A81B204EB8100494209E01A
:1032300010ED012A013182EE013A80ED002A0438B6
:1032400030EE030A0029F3D188EE011A31EE000AAC
:1032500084ED000ABDEC068B70BD00BF00000000CD
:10326000E0B58DF805108DF8040001208DF80620DA
:103270008DF8070001A804F0E9F98CBD0A4805F0B3
:103280000DB800BF0848807A60B180B50748016872
:1032900021F00601016000F005FC0348BDE8804014
:1032A00005F04BBE704700BF6812002010ED00E033
:1032B00070B52DED106B0446B0EE608AB0EE409A0A
:1032C00094ED04AAB5EEC0AAF1EE10FA17DC00F0F6
:1032D00093FD94ED031A30EE41AAB7EE001AB4EE56
:1032E000C1AAF1EE10FA08DD00F086FDB0EE401A3A
:1032F0009FEDAD0A84ED031A49E184ED030A94EDD4
:1033000008BA3BEE490A10EE100A06F077FA41ECD3
:10331000100B05F065FE9FEDA01B51EC100B53EC5C
:10332000112B06F0B2FA48B984ED089AB0EE49BA0A
:1033300094F85C0040F0010084F85C00226E62B1F9
:10334000DFED9A0A04F124000321B0EE480A904709
:1033500094ED08BAB0EE408A05E0D4E9090184EDA5
:10336000098AC4E90A013BEE48BA94ED000A256BCC
:1033700084ED0CBA606B2BEE000AC4E90D501BEE15
:10338000100A8DED030A06F039FA41EC100B05F036
:1033900027FEA06CB0EE408AF0EE608A06F02EFAAE
:1033A00002460B4651EC180B06F068FA0CEE105A68
:1033B000002852D13BEE0C0AB6EE001A2AEE000AA3
:1033C00020EE010A10EE100A06F018FA94ED060B32
:1033D00002460B4651EC100B05F066FE05460E4604
:1033E00046EC185BB0EE480A84ED068BF0EE680AF6
:1033F00005F0F6FD94ED14DAB0EE409AF0EE609A26
:103400001DEE100A06F0FAF902460B4651EC190BB4
:1034100006F03BFAA8B99FED620B2846314653EC03
:10342000102B06F024FAB1EE4D0A002818BFB0EEBA
:103430004D0A10EE100A06F0E1F941EC180B84ED8C
:10344000068B606806F0DAF902460B4651EC180B61
:1034500005F0ECFF05F0F6FD00E0002002903BEEE9
:103460004C1A94ED020A20EE010A80EE0A0A8DED54
:10347000010A9DED010A10EE100A06F0BFF941ECB9
:10348000100B05F0ADFD94ED139AB0EE408AF0EE0E
:10349000608A19EE100A06F0B1F902460B4651ECAB
:1034A000180B06F0F2F960B99DED010AB1EE491A68
:1034B000B5EEC00AF1EE10FAC8BFB0EE491A8DEDB4
:1034C000011A9DED030A9DED021A9DED012A30EED1
:1034D000010A30EE029A19EE100A06F08FF941EC5B
:1034E000100B05F07DFDB0EE408A9FED310A94EDA2
:1034F00015AAF0EE608A2AEE000A10EE100A06F015
:103500007DF955EC186B02460B463046294606F00D
:10351000BCF948B9B5EEC09AB1EE4A0AF1EE10FA1C
:10352000C8BFB0EE4A0A23E09FED220A2AEE000A45
:1035300010EE100A06F062F902460B4630462946A4
:1035400006F09CF908B9606E10B1B0EE490A0FE0C0
:1035500094ED0F0A94ED101A94ED112A39EE000A39
:1035600030EE010AB5EE001A30EE020A20EE010A32
:10357000626E32B1DFED0D0A04F13C000321904789
:1035800005E0D4E90F0184ED0F0AC4E91001BDEC98
:10359000106B70BD00BF00BF00000040E17A843FA7
:1035A00000000000000000000000000000FF7F4756
:1035B000CDCC4C3F9A99993E70B52DED068B0446C3
:1035C00010EE100AB0EE418AB0EE609A06F016F9DD
:1035D0002B4D41EC100BA847B0EE40AA19EE100A93
:1035E000F0EE60AA06F00AF941EC100BA847B0EE25
:1035F000409A18EE100AF0EE609A06F0FFF841ECDF
:10360000100BA847B0EE408A20466821F0EE608A91
:10361000FCF777FF51EC1A0B05F014FD054651EC51
:10362000190B09EE105A05F00DFD064651EC180B6A
:1036300005F008FD9FED131A00EE100AC4E91365AA
:10364000B4EE410AF1EE10FA04D1002084F85C00D7
:10365000022005E0042084F85C00062084ED150AB1
:10366000002139EE090AC4E9061184F85C00064815
:1036700084ED120AC4E90300BDEC068B70BD00BFE7
:10368000E18F000800FF7F47000080BF80EC030A45
:103690007047000070B58AB00220012104F04CF898
:1036A0004FF48070012104F017F82E4C2E4E0521A6
:1036B000032204F58E352846B0472846062103220A
:1036C000B047284607210322B0472846022103229B
:1036D000B047E42008A9089024480990284603F040
:1036E0002FFF40F2E730002505A9069040F29F2009
:1036F00005902046ADF81C5004F05CFA1C48ADF86B
:103700000C50009002956D462046294604F0FEF8C4
:103710002046082104F038F92046294604F03EF9F5
:103720002046082104F08CF92046294604F096F939
:103730002046082104F0E2F92046294604F0E8F981
:103740002046082104F020FA2046012104F09AF8CE
:103750002046012104F0B1F82046012104F0A1F82F
:103760000AB070BD00040140D175000802020001DA
:10377000700001000348016841F00061016000F041
:103780001DBA00BF04ED00E0BCB58020012103F0AC
:10379000A3FF0320084D3C2100220123009005488F
:1037A00044682846A04728463C21BDE8BC4003F0B9
:1037B00046BF00BF289C0008001C0240B0B56C4901
:1037C00091F83620D20703D101F0C2FB00200EE0B1
:1037D0005F4A1A319369D5681C22984704462046EF
:1037E0002021A8470028FAD06068C0F1120080B2FA
:1037F000B0BD00BF80B556481221026955489047B8
:103800000548006800F0F8FA594880ED000ABDE864
:10381000804001F0B3BB00BF0410014054490128AF
:1038200091F8362002F0FE0281F8362006D00228F8
:1038300018BF70470D48042103F0FFBE0B4802215A
:1038400003F0FBBE10B54A48084C90F8361041F022
:10385000010180F836102046022103F0F0FE2046D8
:103860000421BDE8104003F0EABE00BF001802408A
:1038700080B500F0C1FA11489FED112A90ED001AB1
:1038800030EE410AB4EEC20AF1EE10FA04DD012076
:10389000BDE88040FFF7C2BF90ED010A31EE400A5B
:1038A000B4EEC20AF1EE10FA04DD0220BDE8804059
:1038B000FFF7B4BFBDE88040FFF7C4BF2C12002063
:1038C000CDCCCC3DF8B5204D2049284600F03EFE39
:1038D000B0B3274F284612220023002407F1080125
:1038E000FEF73AFB68B31A481A4E3D21826830460B
:1038F0009047304610210122012403F0C3FD3046D9
:10390000012103F0CBFC00F077FA87ED000A01F00B
:103910001FFB284640F22441012204F0E4F9284626
:10392000012104F0A1F90C4D0C4A252040F224415C
:103930006B6898476B680A4944200022984700E06A
:103940000024204601B0F0BD00100140A086010017
:103950000C9C000888640240F4020020F53700083F
:1039600000880020024890F8360000F001007047FF
:103970002C12002010B5FEF75DFCAA48022102229D
:1039800000230024D0F808C0A748E047C16B074ACD
:103990004FF07E53C1E90024054A8B600A65054A51
:1039A0008A640549C1640549486110BD0000FA43B5
:1039B000D2537B41DB0F494000A00C469000002011
:1039C00010B5324C207AC0F38101012910D00229B0
:1039D00004D003290FD12E4800210BE000F0030092
:1039E000032808D12B48007E00F00300012802D1F3
:1039F000274801210170FEF767FC207AC0F381019E
:103A0000012905D002290CD0032925D1214821E024
:103A100000F00300012829D00328F7D00228F5D0B0
:103A20001AE000F003000238B0FA80F041091948AA
:103A3000C1801A494989FB2904D3194A0021C18050
:103A4000116004E0B1B1164A1168C72916DC144AA6
:103A5000013111600021C180FEF77EFB0D480B494A
:103A60001C221030BDE81040FCF706BD0A48007863
:103A70000138D9E70A48C8210160EDE742F2117028
:103A80008142A4BFC8201060E6E700BF700000209C
:103A9000963A00200006002082010020883A00208B
:103AA000C80100207CB53F4D3F4A4FF4E43300206D
:103AB0003F4ED5F8801041F47001C5F88010D15800
:103AC00041F00101D15039494860D4582640394C61
:103AD000D6500C60D65826F48026D65088600190C7
:103AE0000090D05840F48030D050D05800F40030CE
:103AF0000090019801300190009818B90198B0F534
:103B0000A06FF2D14FF4E430105810F4003F0CBF16
:103B1000002001200090009801283ED1C86B4FF48E
:103B2000E43340F08050C863106840F440401060B7
:103B300048684860486840F400404860486840F47D
:103B4000A05048601C480860D05840F08070D050A9
:103B5000D05810F0007FFBD0106840F48030106027
:103B6000506810F4803FFBD0106840F400301060C3
:103B7000506810F4003FFBD040F20570C1F8FC0320
:103B8000486820F003004860486840F00200486040
:103B9000486800F00C000828FAD14FF00060286057
:103BA0007CBD00BF08ED00E000700040043802401A
:103BB000FFFFF6FE103000240C544007B0B5994DBD
:103BC000AC682046FFF754FE287810B100F02EF8BC
:103BD0000CE01348018801310180CE48826988B227
:103BE000904718B10120287000F0F2F80A20B4FBC9
:103BF000F0F000EB8000A4EB400028B9C548406914
:103C00008047C34840688047BD48074C4568204608
:103C1000A84704F580602946BDE8B040084700BFCA
:103C2000641200200003002000640040B0B55F4C27
:103C300060680130606004F11000FFF7BFFD61684B
:103C40000A20B1FBF0F202EB8202A1EB4201012952
:103C50000FD1207EC0F38101012916D100F00300AD
:103C6000012838D0022832D003287ED151480021C3
:103C70002FE06168B1FBF0F000EB8000A1EB4000A9
:103C800003280AD1FFF79CFE6FE002294FF00700DE
:103C9000484908BF0620087067E061680A20B1FB48
:103CA000F0F202EB8202A1EB4201052903D1404868
:103CB000C069804759E06168B1FBF0F000EB80001B
:103CC000A1EB4000072808BFFFF7ACF84DE03948EA
:103CD0000321017049E038483849408848808A8883
:103CE000824206D901229FED360A0A70344A8A6060
:103CF00009E091ED020AB5EE400AF1EE10FA02D1A8
:103D000000220A7005E0BFEE001A30EE010A81EDD4
:103D1000020A2C4A1278062A04D10B7813B9254BD3
:103D200000251D70B0F5967F0CD9062A16D0214BC0
:103D30000325B0F5FA7F1D700CD90D7855B9022511
:103D40001D7007E006D0652804D3062A06D0194A5C
:103D5000042308E0642801D3062A05D10A78012A41
:103D600002D1144A012313708880174DFFF7FAFD22
:103D700040B1606840F2F311B0FBF1F202FB1100B8
:103D800048B1B0BD286840F4804028600F482858EA
:103D900020F4006007E0286880F4804028600B4829
:103DA000285880F4006009496850B0BD60000020C8
:103DB0003C010020DA020020783A0020F4050020BF
:103DC00000004843800100201414024000FCFFFF63
:103DD00080B514480121012201701A200021FFF74B
:103DE0003FFA2B2000210122BDE88040FFF738BABE
:103DF0000C488068704700BF0A489FED0B2A9FED72
:103E00000B3A90ED020AC068B8EE400A90ED001A35
:103E100080EE020AB8EE411A81EE031A30EE010A72
:103E2000704700BF6000002000007A4400247449FD
:103E3000FEB5A54800688047FFF71AF8FFF700F8BD
:103E4000FDF74AFC2E482F4C0025032600210322B3
:103E50000823CDE90065076804F5E050B84704F58C
:103E60000050002103220823CDE90065B847264809
:103E70000021002243690020984704F550554FF473
:103E8000E131284600F066FC28464FF4E13100F0AD
:103E90005DFB2846012103F0E7FE20464FF4E131A7
:103EA00000F058FC20464FF4E13100F04FFB204673
:103EB000FEF7CCF8154920464FF480720123FEF737
:103EC0004BF8204640F22441012203F00CFF20462B
:103ED000012103F0C9FEFDF7A3FBFEF7DFFEFEF7AD
:103EE00061FF0B480068804701F0F2FAFFF7EAFC37
:103EF000084800698047BDE8FE40FFF73BBD00BFB2
:103F0000F89B0008004800400C9C0008D0010020ED
:103F1000000300203C01002010B5354C1420002186
:103F20000222A047412000210222A0472520002193
:103F30000022A047442000210322A0472620002180
:103F40000222A047172000210322A04708200021B9
:103F50000522A047062000210522A0472720002196
:103F60000322A047472000210322A047522000211E
:103F70000322A0475320002103222346BDE810401E
:103F8000184700BFB0B54FF48070012103F0C4FBA7
:103F90001648AF4C9FED140A002102682046904756
:103FA00020460121012203F0A8FC114D2D20002103
:103FB0000022A8472046012103F073FC424C0D4A21
:103FC0002D2001216368984763680B4A2D20012149
:103FD00098472D2000210022A8472D2000210022F3
:103FE0002B46BDE8B040184700007A44509C0008BA
:103FF00061320008E9590008753700083248E34982
:10400000324A334BD0F808C01A20604710B54FF041
:104010008040012103F060FC012818BF10BD1B4C3B
:10402000207800F0E101023000F01E000143092871
:1040300021700CD39FED160A201D03210F22FFF7DC
:10404000BBF8207800F0E10040F00A002070114C2D
:10405000207800F0E101023000F01E000143092841
:1040600021700CD39FED0A0A201D03210F22FFF7B8
:10407000A3F8207800F0E10040F00A0020704FF033
:1040800080400121BDE8104003F008BC0807002073
:1040900000000000980700200B48BE490B4A0C4B5B
:1040A000D0F808C02B2060470748BC49074A084B96
:1040B000D0F808C02D2060470348B749034A044B95
:1040C000D0F808C02C206047F4020020D9780008FE
:1040D0009D780008042984BF9FED0B0A704700EB10
:1040E00081019FED0A1A496BC06A013000EE101A77
:1040F00002EE100AB8EE400AB8EE422A80EE020A3A
:1041000020EE010A704700BF000000000000C84216
:1041100070B52DED066B04460D46B0EE408A206862
:1041200010F0010F2BD1B4F1804F2AD0A048844267
:1041300029D09748844228D0DD48844227D042487D
:10414000844226D04148844225D09248844224D0DB
:104150009148844223D09148844222D08B488442A3
:1041600025D09048844225D08F48844224D08F485F
:10417000844224D08A48844201D1012021E00020D9
:104180005EE001200FE002200DE004200BE008209B
:1041900009E0102007E0202005E0402003E0802017
:1041A00001E04FF48070012103F0B6FA0CE04FF407
:1041B000802006E0022004E04FF4803001E04FF45C
:1041C0000030012103F0B8FA04F14040B74A4FEA49
:1041D000B021002009294FF0000138BF01211268E9
:1041E00022FA01F3002200EE103AB8EE400A80EE07
:1041F000080ABCEEC00A10EE101AB1F1011F0DD36F
:10420000B4F1804F0AD0AA4EB44207D0A94AB3FBFA
:10421000F2F34FF6FF721A44B1FBF3F1ADF804204C
:10422000ADF80600ADF80C00481E01A9029020462A
:1042300003F0C0FC1DB12046012103F032FB012038
:10424000BDEC066B70BD00BF0010004000140040C4
:10425000002000402DE9F8432DED0A5B0446894615
:10426000B0EE608AB0EE409A164601210127B4F103
:10427000804F25D0454884421FD0454884421AD0FB
:104280008B48844217D04348844218D04248844225
:1042900015D04248844212D04148844210D041484F
:1042A00084420AD04048844207D04048844204D027
:1042B0003F48844267D1022702E0032700E0092734
:1042C000D6E9000203234FF0000800930123914038
:1042D000384A89B2D5680022A847B1883068FAB256
:1042E00003F076F9206810F0010F05D12046B0EEFA
:1042F000490A0021FFF70CFF2F48B9F1030FADF871
:104300001080019026D8DFE809F0020B141D01A9E6
:10431000204603F0FBFA2046082103F035FB19E0A4
:1043200001A9204603F03AFB2046082103F088FB50
:1043300010E001A9204603F091FB2046082103F07C
:10434000DDFB07E001A9204603F0E2FB204608213F
:1043500003F01AFC20460121012603F093FA2046BF
:10436000012103F0AAFA20464946B0EE480A00F0BF
:1043700025F82046012103F094FA3046BDEC0A5B93
:1043800001B0BDE8F0830026F7E700BF0048014018
:104390000008004000180040001C004000200040C1
:1043A0000000014000040140004001400044014081
:1043B00000040040289C000860000100042988BF18
:1043C0007047B5EEC00A9FED121A9FED122AC26A1D
:1043D00000EB8100F1EE10FAB8BFB0EE410A0132F5
:1043E000B0EE421AB4EEC20AF1EE10FAD8BFB0EE47
:1043F000401A00EE102AB8EE400A21EE000A80EEC4
:10440000020ABCEEC00A10EE101A4163704700BFEA
:10441000000000000000C842F8B52DED048B0C46EA
:10442000B0EE409A0546FFF755FE05F140401F49A2
:10443000B0EE408A00264FEAB02009284FF0000075
:1044400038BF0120096821FA00F000EE100AB8EE2A
:10445000400A80EE090ABCEEC00A10EE107AB7F1ED
:10446000011F0CD30026B5F1804F08D010498D42B2
:1044700005D01049B0FBF1F0B7FBF0F7461E284617
:10448000002103F00EFA781EAE620121E862284690
:1044900003F007FA28462146B0EE480ABDEC048B2B
:1044A00001B0BDE8F040FFF789BF00BFCC0100209C
:1044B000000C004040420F0021480349214A224B92
:1044C000D0F808C034206047004C00401C48034925
:1044D0001C4A1D4BD0F808C03520604700500040F2
:1044E00017487C49174A184BD0F808C0522060473B
:1044F00013487949134A144BD0F808C05320604739
:104500000F4876490F4A104BD0F808C02520604765
:104510000B48E9490B4A0C4BD0F808C026206047ED
:104520000748E249074A084BD0F808C027206047EF
:104530000348DD49034A044BD0F808C047206047D0
:10454000F4020020937C00084B7C0008F0B585B095
:104550000446D9480D46844221D0D448844232D002
:10456000D348844244D0D348844257D0CE48844272
:1045700000F08E805948844240F0A980102001212B
:1045800003F0DAF802200121022703F0A5F8544EC7
:1045900007210722304603F01BF800973BE04FF459
:1045A0000030012103F0B8F80820012103F094F84D
:1045B0004B480621072200F50066304603F008F854
:1045C000022040213DE04FF48020012103F0A4F8B7
:1045D0004020012103F080F841480921072200F51D
:1045E0000066304602F0F4FF02204FF4007128E02C
:1045F0004FF08040012103F08FF81020012103F0DB
:104600006BF837480721082200F54066304602F073
:10461000DFFF02200090AA48802114E04FF0004004
:10462000012103F079F81020012103F055F82C48FE
:104630000021082200F54066304602F0C9FF022042
:10464000012100909E48C768304600220123B847E8
:10465000E06810F0080F10D100204FF48021019580
:1046600002900391ADF810002046202103F0E4FAF7
:1046700001A9204603F05CFB07E0E068294640F012
:104680000400E060204600F02DF8012005B0F0BDE8
:104690002020012103F050F84020012103F01CF8F4
:1046A0000F480921082200F5A056304602F090FF7D
:1046B00002204FF400710022012300908048C76857
:1046C0003046B8472046012103F09CFBC0E700209C
:1046D000DCE700BF00780040007C00400010014093
:1046E000000402407FB56E4604460D46304603F096
:1046F00043F86D4944F480606FF0630388424FF0E3
:10470000190114BF06F1080006F10C000426006828
:104710004843E168C1F3C031C1F1020105FA01F17A
:10472000B0FBF1F06421B0FBF1F202FB0300E3689F
:1047300003F40043A6EBD336B0403230B0FBF1F0C7
:104740000F2181EA13310840110189B20843A060AA
:104750007FBD00BFF0B585B0044653480D46844286
:1047600025D05248844241D0514884424BD05148D0
:1047700084425DD05048844240F094804FF4003031
:10478000012102F0C9FF0820012102F0A5FF4B4FD3
:1047900005210722384602F01BFF022020210022BB
:1047A000012300904648C6683846B0475AE02020AA
:1047B000012102F0C1FF4020012102F08DFF3F489E
:1047C0000E21082200F54066304602F001FF02206B
:1047D0004FF480410022012300903948C7683046D9
:1047E000B8472046012103F00DFB3BE04FF4802049
:1047F000012102F091FF4020012102F06DFF2F4EB8
:10480000082107220DE04FF08040012102F084FFD3
:104810001020012102F060FF28480821082200F53D
:104820008066304602F0D4FE02204FF4807112E020
:104830004FF00040012102F06FFF1020012102F033
:104840004BFF1E480121082200F58066304602F029
:10485000BFFE0220022100901948C768304600229E
:104860000123B847E06810F0040F10D100204FF486
:104870000021019502900391ADF8100020464021DF
:1048800003F0DAF901A9204603F052FA07E0E068E4
:10489000294640F00800E0602046FFF723FF012092
:1048A00005B0F0BD0020FBE70014014000480040C7
:1048B00000780040007C004000440040000C0240B2
:1048C000289C00087047000070B505460C46002083
:1048D000002D08BF70BD032C14D30B48A61E314613
:1048E00002882846FEF7BEF9AA5DC1B28A421CBF03
:1048F000002070BD291911F8011CC1EB1020B0FA7D
:1049000080F0400970BD00BFC40100200022E8B162
:1049100003291BD310B5DFF838E0C1F10102A1F182
:10492000010CFF23014606E011F8014B0132634000
:10493000DBB21EF80330002AF6D110F80C00D9B211
:10494000081AB0FA80F04209BDE8104010467047DE
:10495000E099000810B504462078A52810D120461B
:104960000521FFF7D3FF58B16078A17840EA012014
:1049700000F109012046FFF7A7FF08B1012010BD93
:10498000002010BDB0B586B00446B1F90000002289
:1049900001ADADF80C2001900879420805F10B003B
:1049A0008DF80E208968FBF767FD2046294601F047
:1049B00076FF06B0B0BD00002D4A904202D02D4ACD
:1049C000904216D1102914D82A4ADFF8ACC02B4BDC
:1049D000904208BF634603EB8100406848B101790B
:1049E000012011F0010F1CBF01F0040180EA9100C9
:1049F00070470120704700BF1D4A904202D01D4AF7
:104A0000904214D1102988BF70471A4ADFF868C055
:104A10001A4B904208BF634603EB8100406830B1F7
:104A2000017911F0010F1CBF01F0FB01017170470A
:104A30000F4A904202D00F4A904218D1102916D83E
:104A40000C4ADFF834C00D4B904208BF634603EBBD
:104A5000810050F8041F51B10A7912F0010F08BF0C
:104A6000704742F004020A710021006881647047B7
:104A70000068004000640040F83600208C370020B9
:104A8000B0B50C46002C4FD0C17A027B42EA01251A
:104A9000A586417B807B40EA0120A084B4F93600E2
:104AA000411C38D029B29FED260A9FED262A9FEDA2
:104AB000264A081A20A110F5805F03EE100AB8BF3D
:104AC0000431B0F5805F94ED0B5AB8EEC33A91ED26
:104AD000001AC8BFB0EE401A31EE030A20EE021AE7
:104AE00010EE100A01EE045A84ED0B5A04F086FE13
:104AF00041EC100B04F074FA9FED0D1B51EC100B00
:104B000053EC112B04F0BAFE38B9608EB0F57A7F01
:104B100038BF013002E0258701E000206086E5868D
:104B2000207C00F0FE002074B0BD00BF00BF00BFBD
:104B300000000000000043400000000000000046AC
:104B4000000000C60000343D35FA8E3C0000000035
:104B5000B0B50C46002C75D0C17A027B42EA012523
:104B6000A5866179062904D0022915D19FED390A5D
:104B700001E09FED370A427B837B9FED371A43EAC2
:104B8000022212B202EE102AB8EEC22A82EE000A07
:104B900020EE010A84ED0A0AC27B007C40EA022072
:104BA000A084B4F93600421C1CD02AB29FED2D0A15
:104BB000101A2AA210F5805F02EE100AB8BF043264
:104BC000B0F5805FB8EEC22A92ED001AC8BFB0EE11
:104BD000401A062931EE020A06D0022914D19FEDAF
:104BE0001D1A03E0258728E09FED191A9FED1E2A64
:104BF00080EE011A9FED1D3A94ED0B4A21EE021A48
:104C000001EE034A84ED0B4A10EE100A04F0F6FDA3
:104C100041EC100B04F0E4F99FED0B1B51EC100B71
:104C200053EC112B04F02AFE28B9608EB0F57A7F80
:104C300038BF013000E000206086E586207C00F06F
:104C4000FE002074B0BD00BF000000000000434023
:104C50000000C042000010424F77D63D0000000027
:104C600000000046000000C60000343D35FA8E3CCE
:104C7000B0B50C46002C79D0C17A027B42EA0125FE
:104C8000A5866179022902D29FED3B0A03E005293E
:104C90001BD1B3EE0B0A427B837B9FED381A0029B0
:104CA00043EA022212B202EE102AB8EEC22A82EEC3
:104CB000000A20EE010A84ED0A0A06D1C27B037CB9
:104CC00043EA0222A284407C2086B4F93600421CCA
:104CD0001AD02AB29FED2C0A101A29A210F5805F73
:104CE00002EE100AB8BF0432B0F5805FB8EEC22AF7
:104CF00092ED001AC8BFB0EE401A022931EE020A46
:104D000004D29FED1D1A05E025872AE005290FD161
:104D1000B3EE0B1A9FED1D2A80EE011A9FED1C3A8F
:104D200094ED0B4A21EE021A01EE034A84ED0B4A80
:104D300010EE100A04F062FD41EC100B04F050F983
:104D40009FED0B1B51EC100B53EC112B04F096FD57
:104D500028B9608EB0F57A7F38BF013000E00020BE
:104D60006086E586207C00F0FE002074B0BD00BFA8
:104D700000000000000043402CA099414F77D63D31
:104D80000000000000000046000000C60000343DA6
:104D900035FA8E3C00000000B0B50C46002C5ED009
:104DA000C17A027B9FED300A42EA0125A586417B4C
:104DB000827B42EA012109B201EE101AB8EEC11A53
:104DC00021EE000A84ED0A0AC17B007C40EA012042
:104DD000A084B4F93600411C38D029B29FED250AD1
:104DE0009FED252A9FED254A081A20A110F5805F26
:104DF00003EE100AB8BF0431B0F5805F94ED0B5A92
:104E0000B8EEC33A91ED001AC8BFB0EE401A31EEC9
:104E1000030A20EE021A10EE100A01EE045A84ED85
:104E20000B5A04F0EBFC41EC100B04F0D9F89FEDA9
:104E30000C1B51EC100B53EC112B04F01FFD38B977
:104E4000608EB0F57A7F38BF013002E0258701E03F
:104E500000206086E586207C00F0FE002074B0BD56
:104E600000000000000043404F77D63D00000000E6
:104E700000000046000000C60000343D35FA8E3CBC
:104E800030B1017911F0010F1CBF01F0FE01017179
:104E9000704740B1017911F0010F02BF01F0FA0132
:104EA00041F0010101717047F8B5044617460D46FF
:104EB0006CB367B3207910F0020028D104F1080622
:104EC00014213046FBF71DFB04F11C0027816061B3
:104ED00010202074E460617907290AD80C48DFE8C3
:104EE00001F00B0B0406060B040A0C4804E00A4808
:104EF00002E0002000E00748A061094831468268CE
:104F00002846904718B1207940F002002071F8BD82
:104F1000714C0008814A0008994D0008514B000867
:104F2000F89B000808B180ED130A704700B10164D6
:104F3000704700B1C163704708B180ED110A704736
:104F400028B190ED111A31EE000A80ED110A704778
:104F50008B480021C0F81E10C0F81A1041628185EC
:104F600090F8221090F82A2001F0F00180F8221029
:104F700002F0FC0180F82A10704700BF10B580488D
:104F80008168C2680269426940F294626FF3DF216E
:104F9000914200F2F3808168C2680269426940F27E
:104FA000FC721140B1F5B67FC0F0E8808168C2683C
:104FB00002694269734A1140734A914200F2DE80ED
:104FC0008168C26802694269704A1140704A914220
:104FD000C0F0D4808168C2686E4C036943690123C4
:104FE0006FF3150102F00102611A73EB0201C0F0C8
:104FF000C5808168C26803694369674B01F07F41DE
:1050000002F00102C91A72F10001C0F0B780816894
:10501000C1680269426940F6FE72114040F62952A9
:10502000914200F2AB8081680023C1680269426945
:10503000013B40F6F87201EA020140F2D6229141AA
:10504000C0F09C808168C1680269426901F44051E6
:1050500091F4805F11D08168C16802694269C943D7
:1050600011F4405F09D08168C1680269426901F4A6
:10507000405191F4005F40F081808168C16802690D
:10508000426901F4404191F4804F11D08168C168B8
:1050900002694269C94311F4404F09D08168C1686F
:1050A0000269426901F4404191F4004F18BF10BDFC
:1050B0008168C268026942696FF3DF2101F57C41B2
:1050C00041838168C26802694269C1F3CA2101F55E
:1050D0007C4181838168C268036943698368C368CE
:1050E00004694469890D41EA8221C3F34A036FF3DD
:1050F000DF2103F57C4301F57C410384C18390F8F3
:1051000022108268C2680369436901F0F001C2F3AA
:10511000013211438268C268036943690C2303EAC0
:1051200012320223114380F822108168C16802699B
:105130004269090C81848168C16801694269C1843E
:105140008168C168016941698268C268026942690F
:1051500001F0010103EAD21290F82A3003F0FC03B7
:105160001943114380F82A108168C16801694169B7
:10517000090C81850168C0F83210416010BD00BF84
:105180002C12002000F83F00FFA7340000E03F0091
:1051900001580B00FFFF3FA50100C05A00207047D7
:1051A000FEE7002070470020704700207047002075
:1051B00070470020704700207047000080B50A4605
:1051C000014602A0FBF79CF8FEE700BF4661696C50
:1051D0006564206F6E202573282564290D0A000060
:1051E000DFF81CC0FF220B0404BFD0B2704710F8D8
:1051F000013B01395A40D2B21CF80220F3E700BF4C
:10520000E09A000800000000B0B52DED028BB0EE72
:10521000408A18EE100A04F0F1FA41EC100B03F08A
:10522000DFFE9FED171B54EC105B2846214653EC24
:10523000112B04F01CFB10B1B0EE480A1DE09FEDED
:10524000120B2846214653EC102B04F025FB10B11D
:105250009FED0F0A11E0B5EEC08A0EA09FED0C1A6B
:10526000F1EE10FAB5EE408AC8BF0430F1EE10FA44
:1052700090ED000A08BFB0EE410ABDEC028BB0BD54
:105280000000000000C082400000000000006940F3
:1052900000000000000016C400001644B0B505462A
:1052A0004FF0010C0024287800F0E1002870002065
:1052B0000CE005EB8003E2B20130D3F88410D3F8A0
:1052C0008030994238BF5CFA84F214460128F0D14C
:1052D0001949D5F88400E2B20968D5F88030C01ABF
:1052E000013101FB0201281D0029C5F88C1012D0E4
:1052F0004900134A9FED130A9FED131A02EE101A8C
:10530000B8EE422A92ED013A80EE020A30EE010A2E
:1053100030EE030A01E09FED090A094991ED021AF6
:105320000321BDEEC11A11EE102AFDF745FF2878C2
:1053300040F001002870B0BD2C00004000000000CB
:1053400090000020B12B17498B6C05C20168794A87
:1053500011604168516081689160C068D060704799
:105360000178104A117041785170418851808188CC
:105370009180C188D18001891181418951818189C0
:1053800091810221937B807B03F0F80301EA5011A5
:1053900043EAD0131943042303EAD000084390736F
:1053A000704700BF783A00200188634A1180418825
:1053B0005180416851600189118141895181808901
:1053C0009081704703490A6812F0400FFBD0C2B2C7
:1053D0004A607047007C004010B50446FFF7BAFAF7
:1053E000012807D13948E2780178914204D3891A1B
:1053F000642901DA002010BDB4F805100270A1F292
:1054000001224181062A15D9022927D0032928D053
:1054100040F20112914228D0B1F5817F29D040F2AB
:10542000031291422CD040F2013291420CD001295A
:105430004AD1FEDEDFE802F0043329372D3A40007E
:10544000E01DFFF78DFF3FE0B4F80710C183B4F80B
:1054500009100184B4F80B10418435E0E179417002
:1054600032E0B4F8071081802EE0D4F807104161D3
:105470002AE0E1790173217A4173617A817323E033
:10548000E1798171217AC1711EE0E01DFFF75EFFB5
:105490001AE0E17901722189A0F8091014E0E01DF9
:1054A000FFF782FF10E0E17981700DE0E1790A09F0
:1054B00042EA0111C17007E0E1790176217A417673
:1054C000D4F80910C0F81A10012010BDD004002033
:1054D00010B518480021194CC0E90011C0E90211AB
:1054E0001548C0F80A1020464FF4E131FFF732F9B1
:1054F00020464FF4E131FFF729F82046FCF7A6FDDE
:105500000F49204680220123FCF726FD204640F269
:105510002441012202F0E7FB0A480B4A40F22441F1
:1055200043684720984720460121BDE8104002F01B
:105530009BBB00BF683A0020883A0020001401405D
:10554000973A0020F4020020755A0008F8B52DEDB6
:10555000048B0446A08AE082608AA08294ED012A2E
:1055600094ED023A94ED020A94ED031A208A092878
:1055700003D80020C4E90C0049E032EE432AB5EE1E
:10558000C02AF1EE10FA42DA12EE100A30EE419A19
:1055900004F034F941EC100B03F022FD204FB0EE83
:1055A000408AF0EE608AF86804F028F902460B465B
:1055B00051EC180B03F03AFF054619EE100A0E469F
:1055C00004F01CF941EC100B03F00AFD3869B0EE51
:1055D000408AF0EE608A04F011F902460B4651EC65
:1055E000180B03F023FF02460B462846314603F012
:1055F0005BFD0546B4F912000E4603F074FE024648
:105600000B462846314603F04FFD03F03DFE608215
:105610006068C4E90200BDEC048B01B0F0BD00BFBE
:1056200090000020F8B52DED088B00F0E5F94FF45F
:10563000407002F047F8FEF7A7F84020012102F081
:105640005BF8012002F00CF9FEF7F2FBFEF79AFC82
:1056500090489FED8F9A904C0021856806692046FE
:10566000B0EE490AA8479FED8DAA20460021B0EE72
:105670004A0AB0478A4F6420B8479FED8A8A20467D
:105680000021B0EE480AA8470220B8472046002172
:10569000B0EE490AA8472046B0EE4A0A0021B047BA
:1056A0006420B84720460021B0EE480AA8470220EF
:1056B000B84720460021B0EE490AA8472046B0EE80
:1056C0004A0A0021B0476420B84720460021B0EEC6
:1056D000480AA8470220B84720460021B0EE490AF0
:1056E000A8479FED71BA20460021B0EE4B0AB047A3
:1056F0006420B84720460021B0EE480AA84702209F
:10570000B84720460021B0EE490AA8479FED670A36
:1057100020460021B0476420B84720460021B0EE63
:10572000480AA8470220B84720460021B0EE490A9F
:10573000A8472046B0EE4B0A0021B0476420B84786
:1057400020460021B0EE480AA8470220B84720466C
:105750000021B0EE490AA8472046B0EE4A0A0021CF
:10576000B047C820B84720460021B0EE480AA847F5
:105770000220B84720460021B0EE490AA8479FED15
:105780004CAA20460021B0EE4A0AB0476420B84730
:1057900020460021B0EE480AA8470220B84720461C
:1057A0000021B0EE490AA8472046B0EE4A0A00217F
:1057B000B0476420B84720460021B0EE480AA84709
:1057C0000220B84720460021B0EE490AA8472046EB
:1057D000B0EE4A0A0021B0476420B84720460021B5
:1057E000B0EE480AA8470220B84720460021B0EE94
:1057F000490AA8479FED2FAA20460021B0EE4A0A89
:10580000B0476420B84720460021B0EE480AA847B8
:105810000220B84720460021B0EE490AA8479FED74
:10582000260A20460021B0476420B84720460021C0
:10583000B0EE480AA8470220B84720460021B0EE43
:10584000490AA8472046B0EE4A0A0021B047C820BE
:10585000B84720460021B0EE480AA8470220B847C2
:1058600020460021B0EE480AA8471448D0F800149A
:1058700021F48041C0F80014016841F40061016026
:10588000FEF74AFB00F0C0F8FEF7B2FAFCE700BFF3
:105890000000B442509C000800180040000044443E
:1058A000339000080000000000802E4400C0244413
:1058B0000000DC430000F74300C002441410024023
:1058C000B0B50F220C460546FAF7D6FD20460E214C
:1058D000FFF786FCA873B0BD0C494FF6FF709FED33
:1058E0000D0A08600A48D0E9002092ED0B1A90EDED
:1058F0000B2A01F10F0021EE001A22EE000A81EDC1
:10590000011A81ED020AFFF7DBBF00BF800500200E
:105910003C0100207DD0333DE0B52E4988420BD0BC
:105920002D49884211D10020032108220323009031
:105930000020FBF7A3FF8CBD0020032108220323D6
:1059400000900020FBF710FF8CBD2648E121BDE848
:105950008C40FFF733BC00BF70B51E4988421BD096
:105960001D4988422FD11B481C4E002500F580643C
:105970000FE056F8251059B10879C00708D0204625
:10598000FFF700F856F82500017901F0FE010171DA
:105990000135102DEDD170BD0E4C114E0025102D8E
:1059A00008BF70BD56F8251059B10879C00708D056
:1059B0002046FEF7E7FF56F82500017901F0FE01C9
:1059C00001710135EBE70748EE21BDE87040FFF7B4
:1059D000F5BB00BF0064004000680040C006002026
:1059E00080060020649C00080248816801318160C3
:1059F000704700BF60000020EFF3108072B60B48C4
:105A0000018801310180704710B5084C208820B909
:105A100007A07C21FFF7D2FB208801384FF6FF71E9
:105A20000842208018BF10BD62B610BD844500201A
:105A30002E2E2F557365722F73705F7461736B2EEA
:105A400063000000B0B514460F290FD308440F229D
:105A5000A0F10F012046FAF70FFDA57B20460E218D
:105A6000FFF7BEFB854204BF0020B0BD4FF0FF3002
:105A7000B0BD0000B0B50948094D0024006803E03E
:105A80002819FFF7A9FC0134802CF9D105488021A1
:105A900002690548BDE8B040104700BF041401404A
:105AA000973A00200C9C0008286402405FEA400CF2
:105AB00008BF91F0000F4FEA8C234FEAC12243EA5E
:105AC00051514FEA1C5018BF00F5F0404FEA30002A
:105AD00018BF41F000415FEA6C5C00F02980BCF126
