:020000040800F2
:1000000088530020AD020008B5020008B7020008BE
:10001000B9020008BB020008BD0200080000000091
:10002000000000000000000000000000BF02000807
:10003000C102000800000000C9420008C502000813
:10004000C7020008C7020008C7020008C70200086C
:10005000C7020008C7020008A1240008C702000860
:10006000C7020008C7020008C7020008C70200084C
:10007000C7020008C7020008C7020008C70200083C
:10008000C7020008C7020008C7020008C70200082C
:1000900089110008C7020008C7020008C924000827
:1000A000C7020008C702000865500008C702000820
:1000B000C7020008C7020008C7020008C7020008FC
:1000C000C7020008C7020008C7020008C7020008EC
:1000D000C7020008A9560008D556000801570008B5
:1000E000C7020008C7020008653F000891500008D9
:1000F000E9500008BD500008C7020008C702000808
:10010000C7020008C7020008C7020008C7020008AB
:10011000F955000825560008C7020008C702000864
:10012000C7020008611F0008C7020008C7020008D4
:10013000C7020008C7020008C7020008C70200087B
:10014000C7020008C5120008C7020008553F000892
:100150008D1F0008C7020008C70200082D570008BD
:10016000C7020008C7020008C7020008C70200084B
:10017000C7020008C7020008C7020008C70200083B
:10018000C7020008C7020008515600087D56000843
:10019000C7020008C7020008C7020008C70200081B
:1001A0000000000000000000C702000800F002F894
:1001B00000F06CF80AA090E8000C82448344AAF195
:1001C0000107DA4501D100F061F8AFF2090EBAE893
:1001D0000F0013F0010F18BFFB1A43F0010318477B
:1001E00034A7000054A700000A444FF0000C10F898
:1001F000013B13F0070408BF10F8014B1D1108BFA5
:1002000010F8015B641E05D010F8016B641E01F844
:10021000016BF9D113F0080F1EBF10F8014BAD1C94
:100220000C1B09D16D1E58BF01F801CBFAD505E0B2
:1002300014F8016B01F8016B6D1EF9D59142D6D30C
:10024000704700000023002400250026103A28BF34
:1002500078C1FBD8520728BF30C148BF0B60704738
:10026000642900F0AD80732900F0C0810020704740
:100270001FB50AF0F0F89DE8030000F0F9FB00F06C
:100280001DFA1FBD10B500F082FA10BD00F0B6FADD
:100290001146FFF7EDFF06F007FB00F0BDFB03B4CE
:1002A000FFF7F0FF03BC06F039F90000094880476A
:1002B00009480047FEE7FEE7FEE7FEE7FEE7FEE748
:1002C000FEE7FEE7FEE7FEE704480549054A064B60
:1002D00070470000D54A0008AD010008884D002095
:1002E00088530020884F0020884F00200FB4044915
:1002F00010B503AA029800F07DF910BC5DF814FB5C
:100300001C0600202DE9F0410E4604460020206224
:100310002046E168884730B3252805D0D4E901217B
:100320009047206A401CF2E7E16820460027884792
:10033000050018D0A5F14100192802D820354FF446
:1003400000673246294620462760FFF789FF40B103
:10035000012804D0F61D26F007060836D8E7361D1A
:10036000D6E72846DAE7206ABDE8F08170B50C468A
:100370000546012A05D02878800600D5EA690023C1
:1003800002E0012305E05B1C934202D2E05C0028FE
:10039000F9D1A869E618C01AA861286A1844286229
:1003A0002846AFF3008004E0D5E9012114F8010BE1
:1003B0009047B442F8D32846AFF3008070BD0000E8
:1003C0002DE9F0410646002410687529314616A52E
:1003D00010D0AFF30080002802DA404213A507E0F6
:1003E00031688A0701D512A502E0490704D511A595
:1003F000012401E0AFF3008000210A2206F1240766
:1004000009E0B0FBF2FCB0FBF2F302FB1C00303061
:1004100078541846491C0028F3D123462A46304612
:10042000BDE8F04100F077B8000000002D000000AA
:100430002B00000020000000032A40F2308010F062
:10044000030C00F0158011F8013BBCF1020F62446F
:1004500098BF11F801CB00F8013B38BF11F8013B00
:10046000A2F1040298BF00F801CB38BF00F8013BAD
:1004700011F0030300F0D080083AC0F0088051F872
:10048000043B083A51F804CBA0E80810F5E7121D28
:100490005CBF51F8043B40F8043BAFF30080D20747
:1004A00024BF11F8013B11F801CB48BF11F8012B13
:1004B00024BF00F8013B00F801CB48BF00F8012B36
:1004C00070474FF0000200B5134694469646203917
:1004D00022BFA0E80C50A0E80C50B1F12001BFF4FD
:1004E000F7AF090728BFA0E80C5048BF0CC05DF863
:1004F00004EB890028BF40F8042B08BF704748BFB1
:1005000020F8022B11F0804F18BF00F8012B704724
:100510007047704770472DE9F0470D46994692465F
:10052000044600F124080168880604D5E06921F03A
:100530001001216000E00120A84201DD471B00E01E
:100540000027A1697A1902EB0900081AA061207836
:10055000C00602D42046AFF30080002608E0D4E9AC
:1005600001211AF806009047206A401C761C206280
:100570004E45F4DB2078C0060AD52046AFF3008054
:1005800006E0D4E9012130209047206A401C206217
:10059000381EA7F10107F4DC07E0D4E9012118F8BF
:1005A00005009047206A401C2062281EA5F1010525
:1005B000F3DC2046AFF300802078000602D502204D
:1005C000BDE8F0870120FBE710B5436913B1AFF335
:1005D000008001E0FFF7CAFE012010BD127800F193
:1005E00024010A7000224A700122EDE711684FF0E1
:1005F000FF32E9E7074B70B50D467B4400F047F842
:100600000446284600F056F810B14FF0FF3070BD98
:10061000204670BD9F61000010B5203AC0F00B80ED
:10062000B1E81850A0E81850B1E81850A0E81850E8
:10063000203ABFF4F5AF5FEA027C24BFB1E818505E
:10064000A0E8185044BF18C918C0BDE810405FEAC0
:10065000827C24BF51F8043B40F8043B08BF70473C
:10066000D20728BF31F8023B48BF11F8012B28BF41
:1006700020F8023B48BF00F8012B70470048704744
:10068000C406002001694A1C02610878704700B561
:100690008FB0CDE901310021059105497944CDE9BB
:1006A000031011466846FFF72DFE0FB000BD000095
:1006B000E5FFFFFF007B00F08000704710B5424867
:1006C0005421FFF7FEFE41485421FFF7FAFE40484F
:1006D0005421FFF7F6FE3F493B483C4A3F4B086038
:1006E0003D490A603A491960531C0365481C10656E
:1006F000012008653B48344A39A1784400F0EEF8FF
:1007000020B9384878440A3800F08FF937482F4A22
:1007100035A1784400F0E2F820B9344878440A382A
:1007200000F083F932482A4A2FA1784400F0D6F825
:1007300020B92F4878440A3800F077F9402322483E
:10074000DC000021224600F0A5F820B125487844BD
:10075000543800F06AF91D4822464023002100F079
:1007600099F820B121487844543800F05EF91848CF
:1007700022461023002100F08DF8002806D01C48E6
:100780007844BDE81040563800F04FB910BD10480D
:1007900070B5006D20F001040B4800F017F90B480C
:1007A00000F014F90A4800F011F909E0206D20F07A
:1007B0000105204600F00AF9204600F044F82C46D6
:1007C000002CF3D170BD0000C80500201C060020DD
:1007D0007006002054000020580000205C0000201B
:1007E000720000007836001877000000F636001816
:1007F000B235001800487047C40600207546FFF760
:10080000F9FFAE4605006946534620F007008546CD
:1008100018B020B5FFF758FDBDE820404FF00006A6
:100820004FF000074FF000084FF0000BAC46ACE86B
:10083000C009ACE8C009ACE8C009ACE8C00921F0C7
:1008400007018D46704770B50446051F00F0F4F8A7
:100850000068002C14BF446870BD002C18BFAC4267
:100860003CBF20466468F8D301680A18AA4218BF42
:10087000456003D12A680546114401602868411982
:10088000A1421CBF6C6070BD61686960216808444A
:10089000286070BD70B5C468A50713D0650211D477
:1008A000B2F5807F09D0B2F5007F06D0B2F5806F37
:1008B00008D1012300F1240106E05D1E6FF07F46A0
:1008C000B54201D3012070BD0161C361416024F4D0
:1008D00070611143C160002070BD00002DE9F0413E
:1008E0000C461646070047D0104600F06FF82078F7
:1008F000611C61280AD0722802D077283CD102E01E
:100900000125002405E00225042402E0082448F221
:10091000020511F8010B2B2806D0622809D011F826
:10092000010C74280AD00BE045F0030544F00204E2
:10093000EFE745F0040544F00104EAE744F0100451
:100940003846214605F0F0FD411C15D000213161EB
:1009500071604FF40071F560F1617061200704D59A
:1009600030460222002100F0E1F8306D40F0010035
:1009700030653046BDE8F0810020FBE72DE9F0410D
:100980000D460646104C206DC10704D0410804D026
:1009900020F00104F7E722460EE0542000F097F81B
:1009A00007000ED0206D47F0010108435421206557
:1009B0003846FFF786FD3A4629463046BDE8F04105
:1009C0008CE70020D6E70000C80500202DE9F0479D
:1009D00004464FF000094FF0FF37C568D4E904869C
:1009E000A80707D0204600F051F9304605F094FDE5
:1009F000002802DA3846BDE8F087280502D54046CF
:100A0000FFF721FF4C212046FFF75BFD206D20F012
:100A1000010020654846EEE710B50446AFF30080BC
:100A20002046BDE81040FFF73ABC10B500F078F959
:100A3000BDE8104000F06EB900487047CC060020B9
:100A4000704770477047704738B504460A46002023
:100A50006946AFF30080002808BF38BD0246009900
:100A6000204600F07EF9012038BD012000F0CDB90C
:100A7000F8B5AFF30080054600200C46102000BFFB
:100A80000646A819A0420DD9324669460020AFF3A8
:100A90000080070008BF00F0B8F90098A04218BF16
:100AA0000546C419FFF7C8FF05600746F01D20F092
:100AB00007004619284600F04DF9B44208BFF8BDBA
:100AC000A21B31463868BDE8F84000F04AB970B55D
:100AD0000646FFF7B1FF056806F10B0020F007049A
:100AE000B4429CBF002070BD2B466A68BAB1106842
:100AF000A04210D304F1080188423CBF50685860FE
:100B000007D35168101941601168091B01605860D2
:100B10001460101D70BD13465268002AE7D12146AB
:100B20002846FFF791FF0028DED170BD2DE9F04186
:100B3000044616460D464769007B80072ED038468E
:100B400005F0F0FC50BB3EB3012E02D0022E25D1A1
:100B500004E0204600F01FF905441DE0384605F08A
:100B6000DFFCE168002841F01001E16005DA204671
:100B700000F058F80120BDE8F081C9030BD5626888
:100B8000E16A914200D81146A26911442269891A8A
:100B9000814200DD08460544002D01DA0220EAE723
:100BA000E16A6068E268814206D29103E06203D59F
:100BB00022F4003141F01002A6690027AE4213DC96
:100BC000E16A814201D90B4600E0034603EB060CC3
:100BD0002369ACEB030CAC4506DD814201D98C46A0
:100BE00000E084469C4505D1A760276042F02000C4
:100BF000A5620DE0AD1BE669AE1B8142A66000D97F
:100C00000846C01A281A20605819606022F0200097
:100C100003490840E060002084F84870ABE700001A
:100C2000BFCFD7FFC16821F4001141F08001C1603E
:100C300000218160016070472DE9F047814614462C
:100C40000E464FF0FF383248D5685769054209D043
:100C50003846A16905F06AFC002811DB2C48C04326
:100C60000540E5602B4632464946384605F060FCB3
:100C7000A16920F00042B21A11440028A16103D0FA
:100C80002046FFF7CFFF4046BDE8F08770B5044629
:100C90000569C06A6168884200D80846E16821F4A5
:100CA0002011E160C90312D5A84208D02246411B99
:100CB0002846FFF7C1FF10B14FF0FF3070BD002094
:100CC000E562C4E90150E06820F48030E060002073
:100CD00070BD10B50446C06820F02000E060A16A35
:100CE000A06988420DD02046FFF7D0FFE06820F4CD
:100CF000405040F01000E060A06AA0612069E0620E
:100D0000606044F24001E0688843E06010BD00008C
:100D100010000200002801D005F000BC7047000060
:100D200010B5014602A000F057F8012010BD0000E8
:100D300053494752545245443A205265646972659A
:100D400063743A2063616E2774206F70656E3A2079
:100D50000000000000210160C0E901107047102070
:100D60007047034640688C46002818BF88423CBF45
:100D700003464068F8D318681844884207D00CF13D
:100D8000030020F00700001D411A521A0146081DF9
:100D90000A60FFF758BD10B50146C268900703D03E
:100DA000900607D5886A0AE0FFF768FC0121016018
:100DB000881E10BD8B69486818440B69C01A91F8E9
:100DC00048301BB191F84910401A10BD1103FCD5F1
:100DD0000028FADD401E10BD70B505460C460A20FD
:100DE00000E06D1C05F0A6FB35B128780028F8D18D
:100DF00002E0641C05F09EFB14B120780028F8D1B5
:100E0000BDE870400A2005F095BB10B500F004F86D
:100E1000BDE81040FFF77EBF10B5012805D00021C6
:100E200003A0FFF7D9FF012010BD09A1F8E70000DA
:100E300053494752544D454D3A204F7574206F66C3
:100E40002068656170206D656D6F7279000000002B
:100E50003A2048656170206D656D6F727920636F0F
:100E6000727275707465640088B1032938BF704769
:100E7000B0B5044640F26C00C2F2000002888D1E3C
:100E80002046294602F09AFD6053BDE8B040704705
:100E900060B1032938BF7047B0B54D1E2946FF2207
:100EA000044602F0A5FD6055BDE8B0407047000063
:100EB000B0B5002900F0B08044F2D4140025C2F28D
:100EC0000004455489B2224606F054F8002844F242
:100ED0001420C2F2000001D005600DE044F2E312DC
:100EE000C2F20002B4F80110B2F80130CB1A18BFF8
:100EF00001230360A2F801100068012818BFB0BDEB
:100F000094E80E0044F2F410C2F2000080E80E00F3
:100F100040F2A611C2F2000106220A7044F2F40166
:100F2000D4F80B50C2F200010A7040F29852C0F897
:100F30000B50C2F20002D0F8031092ED000A01EE4D
:100F4000101AB1EE402AB4EE421AF1EE10FAB4EEE5
:100F5000401AB8BFB0EE421A40F2B012F1EE10FAE9
:100F6000C8BFB0EE401A11EE101AC2F20002C0F86B
:100F70000310D0F8071092ED000A01EE101AB1EE3E
:100F8000402AB4EE421AF1EE10FAB4EE401AB8BF9D
:100F9000B0EE421AF1EE10FAC8BFB0EE401AE17A94
:100FA00011EE102A3029C0F8072006D0322907D0C8
:100FB000312908D10021012007E00021022004E0AE
:100FC0000120012101E00020002144F21022C2F2A0
:100FD0000002106043F6CC70C2F200000170D4F839
:100FE0000300D4F8071000EE100AB5EE400A00EE38
:100FF000101AF1EE10FA4FF00000B5EE400A18BFDB
:101000000120F1EE10FA4FF0000118BF0121084352
:101010004FF0000008BF1060B0BD000080B545F67D
:10102000D130C0F6000004F0D9FD05F08FFE80BD80
:10103000F0B587B04AF2C06041F60006C0F6000085
:10104000C4F20006C46806F5013503200090284666
:101050004021002201230027A0472846062109221B
:1010600007F0D8F84AF2E860C0F6000002689FED89
:10107000120A85683046002190476020C0F20100C6
:10108000029002A93046ADF81470049707F06AFA8E
:101090003046082107F0A4FA3046012107F01EFA75
:1010A0003046012107F029FA9FED040A304600215D
:1010B000A84707B0F0BD00BF00007A440000000060
:1010C0002DE9F0478AB0074643F6E0308A46DDF85E
:1010D0004890C2F20000402198461646FFF7F1F909
:1010E00043F62040C2F200004021FFF7EAF9082051
:1010F000012107F01BF94FF00070012107F036F9CC
:101100000320089040F2023040F60044C0F2001084
:10111000C4F20204099008A9204607F033F82046DB
:1011200000210922002507F075F820460121092237
:1011300007F070F84FF00120A4F5D434CDF81A0070
:1011400005A92046ADF81E508DF816908DF8177041
:101150008DF818608DF819A0ADF8148006F0D9F854
:101160000020C0F20110CDF80E0001A8CDE9015514
:10117000ADF80C5005F0B0FF20460221012206F028
:10118000BFF80AB0BDE8F087B0B586B046F20044BB
:10119000C4F200042046022106F022F8C0B1204625
:1011A000022105F045FF01AA20460021002406F097
:1011B0003AF9019843F6E035C2F2000555F82410DB
:1011C000B1F90020904205D00E2C04F10104F5D9AC
:1011D00006B0B0BD087A0228FAD30A6912B149688C
:1011E00001A8904755F82400017A41F001010172ED
:1011F00006B0B0BD2DE9F04F89B0074643F6604018
:101200008B46DDF84890C2F2000040219846164611
:10121000FFF757F943F6A040C2F200004021FFF764
:1012200050F9022001214FF0010A07F07FF84FF03A
:101230008060012107F09AF84FF44050079040F287
:10124000023040F20044C0F20010C4F202040890E0
:1012500007A9204606F096FF20460C21092206F039
:10126000D9FF20460D21092206F0D4FF4FF00120BE
:10127000A4F5CE34CDF81600002504A92046ADF81B
:101280001A508DF812908DF813708DF814608DF847
:1012900015B0ADF8108006F03CF80E20C0F2011039
:1012A000CDF80A006846CDE90055ADF808A005F074
:1012B00013FF20461021012206F022F809B0BDE8F4
:1012C000F08F000010B586B046F60004C4F20004AA
:1012D0002046102105F084FFC0B12046102105F002
:1012E000A7FE01AA2046012106F09DF8019A43F6C7
:1012F00060410020C2F2000151F82030B3F90040F3
:10130000A24205D00E2800F10100F5D906B010BDAB
:101310001A7A022AFAD342F001021A7251F8200016
:101320000269002AF2D0416801A8904706B010BDBA
:1013300046F20042C4F20002904217D046F6000284
:10134000C4F2000290421CBF0020704743F6604286
:101350000020C2F2000200BF52F82030B3B10E28C4
:1013600000F1010084BF00207047F5E743F6E0324A
:101370000020C2F2000200BF52F8203033B10E2824
:1013800000F1010084BF00207047F5E742F820100B
:101390000120704746F20042C4F20002904217D08A
:1013A00046F60002C4F2000290421CBF00207047C3
:1013B00043F6A0420020C2F2000200BF52F82030E3
:1013C000B3B10E2800F1010084BF00207047F5E79B
:1013D00043F620420020C2F2000200BF52F8203043
:1013E00033B10E2800F1010084BF00207047F5E7FB
:1013F00042F820100120704780B500F001F880BD50
:10140000017941F0010101717047000070B50C468F
:1014100046F60001C4F20001884246F20041C4F2DF
:10142000000101D088422ED143F64C3643F6B82352
:10143000C2F200068842C2F2000308BF1E46102C0A
:1014400021D806EB840555F8040F00281EBF01794A
:101450005FEAC17170BD104602F0E0FC9FED0B0A1F
:10146000286004F01BFF2868316804F2012204F0B0
:10147000ABFE2868002104F00DFF2868002104F06D
:1014800005FF286870BD002070BD00BF000000008F
:10149000F0B581B00D4646F60001C4F20001884265
:1014A00046F200411C46C4F2000101D0884250D1EE
:1014B00043F64C3743F6B823C2F200078842C2F223
:1014C000000308BF1F46102D43D807EB850656F8CA
:1014D000040F00281CBF01795FEAC17137D11046A3
:1014E00002F09CFC9FED1C0A306004F0D7FE3068CF
:1014F000396805F2012204F067FE42F6B830C5EB08
:101500000517C2F2000000EBC7059FED140ADFEDDE
:10151000140A9FED141A284602F084FE306829460A
:1015200004F0B8FE94B141F6B840C2F2000000EBFE
:10153000C7049FED0A0ADFED0A0A9FED0A1A20464A
:1015400002F070FE3068214604F0A0FE306801B061
:10155000F0BD002001B0F0BD0000000000004843D5
:1015600000FF7F470000FA4546F60002C4F2000281
:10157000904207D046F20042C4F2000290421CBFE3
:1015800000207047102918D843F64C3346F2004229
:1015900043F6B82CC2F20003C4F20002C2F2000CFF
:1015A000904208BF634603EB8100406800281ABFE1
:1015B00001795FEAC1710020704700207047000088
:1015C000B0B540F2E040C2F20000C36846F200400D
:1015D000C4F2000006210022984718B914A069211E
:1015E00004F0B8FF40F2C015C2F2000505F138045E
:1015F0009FED170A9FED171AFFEE000A204602F032
:1016000011FE40F6DB70C4F24900C5F890004CF2C0
:101610000000C4F2DA509FED100ADFED100AC5F8A1
:101620009C00B2EE041A204602F03CFEB0BD00BFA2
:101630002E2E2F53504C69622F4D6F642F636861BB
:101640007369732F73705F6368617369732E6300CE
:10165000D2537B4100C0DA4500E0AB4500000000FA
:10166000B1EE601AB4EE600AF1EE10FAB4EE401A70
:10167000C8BFB0EE600AF1EE10FAC8BFB0EE410A82
:10168000704700002DE9F0472DED028B4CF6CD425E
:10169000CCF6CC42A0FB0223DA0802EB8202A0EBDC
:1016A0004200072816D0012840F05C8248F2302022
:1016B000C4F24120016840F27E72C2F20002118041
:1016C000406841F2B811C2F200010880BDEC028B03
:1016D000BDE8F08740F2B81AC2F2000A44F2693855
:1016E0009AF80000C2F200080C4698F8001044F680
:1016F0004C570628C2F2000703D106291CBF00225E
:101700003A6040F294160728C2F200062ED8DFE8AD
:1017100000F004042D040430762D884205D040F2F8
:10172000A011C2F200010968396007281ED8DFE85D
:1017300000F085041D8B0420661D40F22870C2F263
:10174000000090ED000A9FED961A40F26409B4EE95
:10175000410AF1EE10FAC2F2000980F28980B7EE78
:10176000001A30EE010A80ED000AF9E0002038602E
:1017700040E140F2A010C2F2000090ED008A6FF04C
:1017800004000F2102F0D2FE00EE100A40F27C703D
:10179000C2F20000B8EEC00A007838EE000A002855
:1017A00040F22470C2F2000087ED000A07D090EDED
:1017B000000AB7EE001A30EE010A80ED000A90ED43
:1017C000000AB7EE001AB4EE410AF1EE10FAC4BFF7
:1017D00030EE010A80ED000A90ED000A9FEDEB1A51
:1017E000B4EE410AF1EE10FA40F3048196ED000ADE
:1017F0000021B1EE400A86ED000A0160FAE0B4F97A
:101800000410B4EE001A0846002948BF48421428C4
:1018100040F29C1000EE101AC2F20000B8EEC00AAE
:10182000D0ED000A20EE010A9FEDDF1AB8BFB0EE3E
:10183000410AFFF715FF87ED000ADBE040F2A01038
:10184000C2F20000006892E740F26800C2F20000B5
:1018500090ED000A9FEDD31AB4EE410AF1EE10FAB2
:1018600045DAB7EE001A30EE010A80ED000AC1E059
:101870000021016000F03CFE00EE100A9FEDC41A4A
:101880009FEDC48AB8EEC00A30EE011A30EE080AA5
:10189000BDEEC11ABDEEC00A11EE100A10EE101A0C
:1018A00002F044FE00EE100AB8EEC00A80EE080A0C
:1018B000B5EE400AF1EE10FA89ED000A06DA9FED66
:1018C000B61AB4EE410AF1EE10FA0BDCB5EE400A9E
:1018D000F1EE10FA40DD9FEDB11AB4EE410AF1EEDF
:1018E00010FA39DA30EE010A89ED000A38E00021F9
:1018F000016000F019FE00EE100A9FEDA51A9FEDA1
:10190000A58AB8EEC00A30EE011A30EE080ABDEE24
:10191000C11ABDEEC00A11EE100A10EE101A02F044
:1019200005FE00EE100AB8EEC00A80EE081A40F27A
:101930006000C2F20000B5EE401AF1EE10FA80ED40
:10194000001A2FDA9FED940AB4EE401AF1EE10FA65
:1019500028DD31EE000A3BE04FF07E50C9F8000070
:1019600002F0D8F8002840F2A010B7EE080AB0EE56
:10197000041AC2F2000008BFB0EE401A90ED000A4F
:1019800099ED002A20EE010A22EE000A9FED841A4A
:10199000B0EEC00A80EE010A87ED000A2AE000BF1F
:1019A0000000C8429FED7D2AB7EE000AB4EE421A4D
:1019B00031EE023AF1EE10FAB0EE402AB5EE401ADE
:1019C000B8BFB0EE432AF1EE10FAC8BFB0EE420A3B
:1019D00080ED000A40F2A010C2F2000090ED001A63
:1019E000B0EEC02A21EE021A87ED001A05F0F2F9D6
:1019F00086ED000A97ED000AB2EE048A20EE081A7E
:101A0000BDEEC11A11EE100A9FED621AC821B4EEA4
:101A1000410AB3EE0E1A40F27E72F1EE10FAC8BF20
:101A20004FF4FA71B4EE410AC2F20002F1EE10FA7C
:101A30001288C8BF014640F2A410C2F20000002A7A
:101A4000018004BF4FF07E50306041F2B810C2F206
:101A50000000008818B90020CBF68070306040F29A
:101A6000E040C2F20000C26946F20040C4F2000049
:101A70000621904790ED0B0ABAEE041AB4EE410A23
:101A8000F1EE10FA06DC9FED491AB4EE410AF1EED0
:101A900010FA0EDA9FED451ABFEE003AB4EE410A95
:101AA000B7EE002AF1EE10FAB8BFB0EE423A86ED7A
:101AB000003A40F27D00C2F2000040F27C01007862
:101AC000C2F200010978002818BF0120002918BFC0
:101AD000012108420DD143F6CD70C2F20000017819
:101AE00039B196ED000A0021B1EE400A86ED000AF8
:101AF00001709AF80000042801D0012836D140F284
:101B00008000C2F2000097ED000A96ED001A90EDF9
:101B1000002A20EE010A62EE080A02F0B9FF97EDF2
:101B2000000A96ED001A43F6D070C2F2000020EED3
:101B3000010A80ED000A04F1080744F23C258ECF2B
:101B4000D4E90060C2F2000505F1080C8CE88E00B3
:101B5000C5E90060A0699AF80010A86188F8001033
:101B600000F026F8BDEC028BBDE8F0870628D6D041
:101B700040F2800097ED000A96ED001AC2F20000D4
:101B8000D0ED000A20EE010AC7E700BF0000C842FE
:101B9000000048C200004842CDCC4CBFCDCC4C3FE9
:101BA0009A99993F0000FA4300000000000048C3E2
:101BB00070B52DED028B40F2E040C2F20000C26928
:101BC00046F20040C4F200000621B0EE408A904781
:101BD0000446856A40F29C10C2F2000040F2C01632
:101BE000D0ED000AC2F20006B0EE480AF560FFF739
:101BF00037FD44F65050C2F2000080ED000A00EEBE
:101C0000905A06F1380002F0C7F944F65855C2F26E
:101C1000000585ED000A00F001F995ED000A40F29B
:101C20009810C2F2000090ED002A10EE100A4FF05A
:101C30007E51B0EEC01A61F31E0003EE100AB4EE3E
:101C4000421A23EE023AF1EE10FAB5EE402AB8BF7E
:101C5000B0EE403AF1EE10FA84ED123A04BF0020E3
:101C6000A06443F6CD70C2F20000037840F22C71FC
:101C700040F23072C2F20001C2F2000223B90E78C3
:101C8000002E1CBF00261660F3B99FED1A1ABBEE9A
:101C9000042A80EE010A94ED0A1A81EE021A30EE4F
:101CA000010A9FED151AB0EEC00AB4EE410AF1EE3A
:101CB00010FA09DD13685E1C642B166007DB012334
:101CC00003706423136002E000231360037044F682
:101CD0006452C2F2000292ED000A0078B5EE400AAA
:101CE000F1EE10FA087018BF84ED120ABDEC028BF9
:101CF00070BD00BF00409C459A99993E80B546F65C
:101D00000002C4F20002904206D046F20042C4F241
:101D10000002904218BF80BD102917D843F64C33FB
:101D200046F2004243F6B82CC2F20003C4F20002AD
:101D3000C2F2000C904208BF634603EB810040688A
:101D400000281CBF01795FEAC17100D180BD016C20
:101D5000002918BF04F0A2FA80BD000080B546F645
:101D60000002C4F20002904206D046F20042C4F2E1
:101D70000002904218BF80BD102917D843F64C339B
:101D800046F2004243F6B82CC2F20003C4F200024D
:101D9000C2F2000C904208BF634603EB810040682A
:101DA00000281CBF01795FEAC17100D180BD016CC0
:101DB000002918BF04F078FA80BD000080B546F60F
:101DC0000002C4F20002904206D046F20042C4F281
:101DD0000002904218BF80BD102917D843F64C333B
:101DE00046F2004243F6B82CC2F20003C4F20002ED
:101DF000C2F2000C904208BF634603EB81004068CA
:101E000000281CBF01795FEAC17100D180BDC16BA0
:101E1000002918BF04F042FA80BD000040F2B8105B
:101E2000C2F20000017840F2981C0429C2F2000CB2
:101E300001D0012927D144F23E12C2F200021189D9
:101E400048F20003481E80B2C4F23B633028CCF84D
:101E5000003060D850689FED3A0A01EE100A81EE1A
:101E6000000A9FED381A9FED382A20EE010A30EE65
:101E7000020AB5EE400A9FED351AF1EE10FAB8BF2E
:101E8000B0EE410A3BE044F23E12C2F20002118978
:101E900000204B1E9BB2C4F2FA50C62BCCF80000B7
:101EA0001CD85068BBEE041A00EE100A80EE010A3E
:101EB0009FED281A9FED282AA1F1960020EE010A35
:101EC00001EE100A30EE020AB8EEC11A9FED202A88
:101ED00020EE010A80EE020A8CED000A302B1AD89F
:101EE0005068BBEE041A00EE100A80EE010A9FED66
:101EF000191A9FED192A20EE010A30EE020A01EEAE
:101F0000101AB8EE411A9FED122A20EE010A80EE57
:101F1000020A8CED000A002904BF0020CCF8000062
:101F20009CED000A9FED0D1AB4EE410AF1EE10FA95
:101F3000BEBF0020C4F27A40CCF80000704700BF5A
:101F4000000020C20000FA4500803B46000000006F
:101F50000000484200007A4500401C4600007A44D8
:101F600080B540F2D440C2F20000D0F808C048F278
:101F7000650247F6AD6346F22841C0F60002C0F69E
:101F80000003C4F202013920E04780BD80B540F271
:101F9000D440C2F20000D0F808C048F2650247F60B
:101FA000AD6346F28841C0F60002C0F60003C4F2F9
:101FB00002014420E04780BD46F2080CC4F2020C46
:101FC0000CF57E73984249F60043CBF6FD731BD2A5
:101FD00018444AF6AB2300F58060CAF6AA23A0FB9A
:101FE0000303C3F30010F02200EB400002EA5302A7
:101FF00042EA40001F2821D8DCF8002001FA00F056
:102000001043CCF8000070474AF6AB221844CAF6D9
:10201000AA22A0FB0202C2F30010F02300EB400052
:1020200003EA520242EA40001F2810D8DCF80024DC
:1020300001FA00F01043CCF8000470472038DCF8B7
:10204000042001FA00F01043CCF80400704746F277
:102050000C42C4F202022038136801FA00F018435F
:10206000106070472DE9F04102B340F2704514460C
:10207000884606460027C2F2000502E00C37182FFA
:1020800014D0E859E9190268496802F060628A428E
:10209000F4D105F0DDFF0028F0D1E8593146424681
:1020A000234600F0D3F8E859BDE8F0810020BDE8F0
:1020B000F081000046F20042C4F2020249F60043F9
:1020C0009042CBF6FD7319D218444AF6AB2300F5C3
:1020D0008060CAF6AA23A0FB0303C3F3001000EB41
:1020E000400CF02000EA530040EA4C00202832BFA8
:1020F000A2F580622038A2F57F7216E018444AF6F5
:10210000AB23CAF6AA23A0FB0303C3F3001000EB22
:10211000400CF02000EA530040EA4C00202822BF87
:10212000203846F20442C4F20202126801FA00F0BA
:10213000104018BF012070472DE9F04F8FB08A463C
:1021400006464FF480000121914606F0EFF86846FC
:1021500040F2704500F12C070024C2F200054FF058
:10216000000B00BF0BEB4B0155F8210005EB81087C
:1021700005F0C2FED8F8000005F06AFF0028F9D18A
:10218000D8F80400694600908020CDE9016ACDE9C5
:1021900003094FF4007005904FF48060CDE9060408
:1021A0004FF48030CDE908440A90D8F80000C7E920
:1021B0000044BC60FC6005F0A5FF0BF1010BBBF116
:1021C000020FCFD101200FB0BDE8F08FB0B50D46A2
:1021D0000021044605F084FE2068C007FCD1A9B2A6
:1021E000204605F0BBFF2046012105F079FEB0BD79
:1021F0002DE9F04381B02BB3884600211D4691465E
:10220000044605F06DFE4FF4FA614FF6FF7600BF0D
:1022100020460F4605F01CFF16FA87F18AB28A4263
:1022200018BF0028F4D138040CD020463D21C4F852
:102230000890C4F80C806560FFF7BEFE20460121BF
:1022400005F04EFE002001B0BDE8F083F0B581B08E
:102250004BB11D4617460E46044605F0F9FE01280F
:1022600003D1002414E0002412E0A760E66065605A
:102270002068C00503D5206820F4807020602046C7
:102280003D21FFF799FE20460121012405F028FE9B
:10229000204601B0F0BD00002DE9F0438FB00F469D
:1022A00047F6FF31054646F22800C4F20001984681
:1022B0009146C4F202008D424FF0000614DC44F255
:1022C0000041C4F200018D4223D044F60001C4F263
:1022D00000018D4220D047F60001C4F200018D427A
:1022E0006AD100F130041DE047F60041C4F200015C
:1022F0008D4215D041F20001C4F201018D4214D08B
:1023000041F20041C4F201018D4255D100F58064D3
:1023100008E000F160040AE04FF00066044608E0BF
:1023200000F178044FF0206603E000F58C644FF074
:1023300000662168C9073ED100F576714FF4800030
:102340008C424FF0010138BF4FF4001005F0EEFF52
:10235000204605F0D1FD00BF204605F079FE00289B
:10236000FAD10020291D00960390CDE901174FF402
:102370008061CDE9049006914FF4807109914FF48A
:10238000003107900890CDE90A10CDE90C000E90BD
:102390006946204605F0B6FE284640210122012666
:1023A00006F092FAB8F1000F06D02046012101266E
:1023B00005F096FD00E0002630460FB0BDE8F08342
:1023C000F0B58FB047F2FF71044646F21000C4F238
:1023D0000001C4F202008C424FF0000616DD47F601
:1023E0000001C4F200018C421FD047F60041C4F244
:1023F00000018C421ED041F20041C4F201018C4226
:102400004BD100F592654FF020671BE044F200418C
:10241000C4F200018C4211D044F60001C4F2000164
:102420008C423AD100F148050AE000F118054FF05E
:10243000206707E04FF02067054603E000F19005B4
:102440004FF0006729680026C90726D100F57C7186
:102450004FF480008D424FF0010138BF4FF400105F
:1024600005F064FF402003904FF4806006904FF425
:102470000030009705960796CDE90866CDE90A0673
:1024800069462846CDE90C660E9605F03BFE2046CF
:102490008021012206F018FA012630460FB0F0BD67
:1024A00080B540F2D440C2F20000D0F808C048F233
:1024B0006D1248F26113C0F60002C0F60003062058
:1024C0000121E04780BD000080B540F2D440C2F257
:1024D0000000D0F808C048F26D1248F26113C0F64F
:1024E0000002C0F6000317204FF48071E04780BD62
:1024F00044F2F400C2F2000000780138C1B20529AC
:102500008FBF002040B202A151F82000704700BFE9
:10251000CEFFFFFF32000000CEFFFFFF00000000F3
:10252000320000000000000040F2A610C2F20000DD
:1025300000780138C1B205298FBF002040B202A146
:1025400051F82000704700BF19000000E7FFFFFFAF
:102550001900000000000000E7FFFFFF000000007E
:1025600080B540F2E040C2F20000026940F278001B
:10257000C2F2000090ED000A46F20040C4F20000F2
:102580000221904780BD000070B540F24070C2F259
:102590000000006844F2DE35B0F92400C2F2000504
:1025A00000EE100AB8EEC00A287840F23474C2F285
:1025B0000004002884ED000A08BF00F04DF82878D8
:1025C00040F274050128C2F200052DD140F23876A0
:1025D000C2F20006307870B140F23A70C2F20000E8
:1025E00001884A1C11B23129028002DCFFF7B8FFD2
:1025F00003E063292ADC00F041F894ED000A95ED30
:10260000001A30EE410A9FED131AB0EEC00AB4EE84
:10261000410AF1EE10FA01DA307840B140F23C7034
:10262000C2F20000002101802068286070BD40F2E5
:102630003C70C2F20000018801310AB2042A018014
:10264000F2DB0121317000210180EDE700210180E2
:102650003170D2E7D253FB3B80B540F2E040C2F28A
:102660000000026946F200409FED030AC4F2000038
:102670000221904780BD00BF0000000080B540F2FD
:10268000780140F2E040C2F20001C2F2000091ED98
:10269000000A026946F20040B1EE400AC4F20000AE
:1026A0000221904780BD000070B52DED068B40F2F1
:1026B000E046C2F2000646F20044B568C4F20004E7
:1026C0002046002100220023A84740F24475C2F2B0
:1026D0000005B66828602046012100220023B0478B
:1026E000296840F24874C96B9FED208A9FED209ABB
:1026F0009FED20AAC2F2000420600846B0EE480A0E
:10270000F0EE490AB0EE4A1A01F08CFD2068B0EEF6
:10271000480AC06BF0EE490AB0EE4A1A01F082FD99
:1027200028689FED158A9FED159AC06BB7EE00AA39
:10273000B0EE480AF0EE490AB0EE4A1A01F0B2FDD6
:102740002068B0EE480AC06BF0EE490AB0EE4A1AB3
:1027500001F0A8FD20682968C06B0022C96BC4F293
:10276000A01282658A65BDEC068B70BD00007042C8
:1027700000FF7F4700007A440000FA430000000099
:1027800070B544F20421C2F20001087840F24C75A1
:10279000002840F24E70C2F20005C2F200002CD0B8
:1027A000038801220A705A1C91B2652902801ED347
:1027B00048F68903C8F68803A1FB0334E308A3EBBA
:1027C000031313FA82F2120411D12A8840F2A813DB
:1027D00000EE102AC2F20003B8EE400A93ED001A90
:1027E000B4EE401AF1EE10FAC8BF0A322A8042F263
:1027F0001172914204D3642101E0002129800180FB
:10280000288840F2E046C2F20006404246F2004408
:10281000326900EE100AC4F20004B8EEC00A204685
:10282000002190472888326900EE100AB8EE400A6D
:1028300020460121904770BD10B540F28844C2F295
:102840000004206C8047E06B804710BD2DE9F0410B
:102850002DED048B40F2E045C2F2000546F200483F
:10286000AF68C4F200084046052104220123B8479E
:1028700044F20C276A6CC2F20007002138609047CE
:1028800038684FF07C51006C9FED268A9FED269AA8
:10289000816545F2D23146F20006C4F27B11C4F2E2
:1028A0006A66B0EE480AF0EE490AB0EE491AC0E98D
:1028B000181601F0F7FC386840F28847C16BC2F285
:1028C0000007AC68C6644E663860404604210422A6
:1028D0000123A04744F208246A6CC2F200040021DC
:1028E0002060904720684CF6CD41006CC3F64C61E7
:1028F00081650021C4F24001B0EE480AF0EE490AB9
:10290000B0EE491AC0E9181601F0CCFC20687860D6
:102910000179C66441F004010171BDEC048BBDE88E
:10292000F08100BF0000FA440000484370B540F257
:10293000E04540F27476C2F20005C2F2000646F2AB
:1029400000446A6996ED000AC4F20004204605219D
:1029500090476A6996ED010A20460421904770BDB0
:1029600040F25070C2F200000188B1F5487F29D3CF
:1029700044F20820C2F20000016840F2000C0A6C28
:1029800000230020C4F2FA4CC4F2C823C862486491
:10299000C2E900C344F20C22C2F200021268D06203
:1029A0005064106C0022C4F27A42C0E9002344F261
:1029B00005220B79C2F200020120107003F0FB0225
:1029C0000A7170470131018044F20521C2F2000111
:1029D0000020087070470000B0B52DED068B44F262
:1029E0000C24C2F2000420689FED208A9FED209AFB
:1029F000006C9FED1D0AF0EE480AB0EE491A01F096
:102A000051FC44F20825C2F2000528689FED19AA7E
:102A1000006CB0EE4A0AF0EE480AB0EE491A01F036
:102A200041FC20689FED148AC06BB0EE4A0AF0EEBC
:102A3000480AB0EE481A01F035FC2868B0EE4A0AA0
:102A4000C06BF0EE480AB0EE481A01F02BFC286883
:102A50002268006C126C00218162C162C2E90A1115
:102A6000BDEC068BB0BD00BF00007A440000C84238
:102A7000000048430000FA44000000002DE9F04F38
:102A800081B02DED028B40F2B81AC2F2000A9AF81A
:102A9000000044F26A3640F28844C2F2000606287A
:102AA000C2F2000407D13078062804D0216B06203A
:102AB0008847606B80479AF8000040F25C7BC2F266
:102AC000000B48B9307838B10020216B8BF800003A
:102AD00006208847A06B80479AF80000012807D19C
:102AE0003078012804D0216B06208847A06B8047EE
:102AF0009AF8000002280CD13078022809D0A06B87
:102B0000804744F668500021C2F20000C4F29631BA
:102B100001609AF8000003280CD13078032809D00E
:102B2000A06B804744F668500021C2F20000C4F256
:102B3000963101609AF8000004280CD130780428FE
:102B400009D0A06B804744F668500021C2F2000013
:102B5000C4F29631016044F20C28C2F20008D8F8A1
:102B600000009AF80020017944F2082E072AC2F2E8
:102B7000000E13D144F20522C2F2000212786AB1AB
:102B800041F00401DEF8002001711079754640F033
:102B900004001071A06B8047AE4608E001F0FB0115
:102BA000DEF800200171107900F0FB0010719AF836
:102BB000001040F2607740F2707544F6805C44F299
:102BC0001C230629C2F20007C2F20005C2F2000C63
:102BD000C2F2000300F2818340F2A610C2F20000AC
:102BE0000078DFE811F0710107009F01070007007E
:102BF00007005A02DEF8001044F2102B91ED0B0A88
:102C000044F2F411C2F20001D1F80710C2F2000B35
:102C100001EE101ADBF800109FEDBC8A9FEDBC2A74
:102C2000012940F2687121EE081AC2F200011CD19C
:102C30009FEDB83A30EE014AB4EE434AF1EE10FA95
:102C400013DD91ED002AB7EE003A9FEDB34A32EE64
:102C5000032AB4EE442AF1EE10FA81ED002A06DDD3
:102C60009FEDAE2A0022CBF8002081ED002A91EDE5
:102C7000002AB5EE402AF1EE10FA08DAB7EE003A73
:102C800032EE032A81ED002A0021CBF80010DBF898
:102C90000010F14602296BD0012940F0CE8044F2A9
:102CA000F410C2F20000D0F803009FED9D3A02EE4E
:102CB000100A22EE084A24EE034AB3EE0B5A84EEC1
:102CC000054A21EE031A81EE051AD8F8000090EDAE
:102CD0000B3A33EE043A85ED003A40F2C05531EE3E
:102CE000400AC2F2000587ED000A95ED000AB0EE39
:102CF000C21AB4EE401A40F25477F1EE10FAC2F262
:102D0000000740F30182606C804797ED000AB7EE40
:102D1000001A30EE010AB1EE081AB4EE410AF1EEE3
:102D200010FA87ED000A19DD44F2F410C2F2000037
:102D3000D0F8030002EE100A22EE082A82EE002AE2
:102D4000D8F8000090ED0B3A40F27070C2F200002B
:102D500022EE011A33EE011A80ED001AB2EE081AC3
:102D6000B4EE410AF1EE10FAC8BF87ED001AD1E1C6
:102D7000DCF80000216B28601868A846386006203F
:102D8000884744F66850C2F2000090ED000A9FEDBB
:102D9000621A022044F6805C40F2607744F21C2301
:102DA000B4EE410ACBF8000040F25C7BC2F2000CAA
:102DB000C2F20007C2F20003F1EE10FAC2F2000BF9
:102DC000CE4640F38A82216B0620884740F2945019
:102DD000C2F2000090ED000A98ED001A40F2AC102B
:102DE00040F2607730EE010AC2F20000C2F2000742
:102DF00088ED000A90ED000A9BF8000097ED002A8C
:102E0000B1EE401A002818BFB0EE410A002044F687
:102E1000685144F6805C44F21C2332EE000AC4F28E
:102E20009630C2F20001CE46C2F2000C4546C2F214
:102E3000000387ED000A08604FE244F66858C2F2CA
:102E4000000898ED000AB7EE001A9FED332A30EE25
:102E5000010AB4EE420A40F25C7BF1EE10FAC2F2D3
:102E6000000BCE4688ED000A40F33782216B67469F
:102E7000884740F29450C2F2000090ED000A95EDB0
:102E8000001A40F2AC10BC4640F2607730EE010A06
:102E9000C2F20000C2F2000785ED000A90ED000AC0
:102EA0009BF8000097ED002AB1EE401A002818BFE9
:102EB000B0EE410A44F21C2332EE000ACE46C2F2C2
:102EC000000387ED000A03E240F29450C2F20000D2
:102ED00090ED000A95ED001A40F2AC1030EE010AB8
:102EE000C2F2000085ED000A90ED000A9BF8000098
:102EF00097ED002AB1EE401A002818BFB0EE410A43
:102F000032EE000A87ED000AE7E100BF4DF38E3C88
:102F1000000000000000FA430000964300007AC45D
:102F200000001C42DEF8001044F2102B91ED0B0A59
:102F300044F2F411C2F20001D1F80710C2F2000B02
:102F400001EE101ADBF800101FED108A1FED102A99
:102F5000012940F26C7121EE081AC2F200011CD165
:102F60001FED143A30EE014AB4EE434AF1EE10FA86
:102F700013DD91ED002AB7EE003A1FED194A32EE4B
:102F8000032AB4EE442AF1EE10FA81ED002A06DDA0
:102F90001FED1E2A0022CBF8002081ED002A91EDC2
:102FA000002AB5EE402AF1EE10FA08DAB7EE003A40
:102FB00032EE032A81ED002A0021CBF80010DBF865
:102FC0000010022900F0F480012940F0448144F20D
:102FD000F410C2F20000D0F803001FED2F3A02EE09
:102FE000100A22EE084A24EE033AB3EE0B4A83EEAF
:102FF000043AD8F8000031EE400A90ED0B4A87ED14
:10300000000AB0EEC21A40F25877F146C2F2000749
:1030100034EE033A85ED003A40F2C055C2F20005A5
:1030200095ED000AB4EE401AF1EE10FA40F3C681B5
:10303000606C804797ED000AB7EE001A30EE010A87
:10304000B1EE081AB4EE410AF1EE10FA87ED000A6B
:1030500019DD44F2F410C2F20000D0F8030002EED1
:10306000100A22EE082A82EE002AD8F8000090ED1D
:103070000B3A40F27070C2F2000022EE011A33EEF9
:10308000011A80ED001AB2EE081AB4EE410AF1EE10
:1030900010FAC8BF87ED001A96E144F22020C2F270
:1030A0000000B0F90010B0F9020000290A4648BF3C
:1030B0004A42142AB8BF002100EE101AB8EEC01A16
:1030C000B3EE0E0A81EE002A9FEDE71A95ED003A65
:1030D0000028014682EE012A33EE022A85ED002AFD
:1030E00048BF41421429B8BF002002EE100AB8EED2
:1030F000C22A82EE000A80EE010A97ED001A31EE34
:10310000000A87ED000AE8E0E06B80479FEDD31AE4
:1031100087ED001A44F2F410C2F20000D0F8030068
:1031200095ED000A20F0004001EE100AB4EE401ABE
:10313000F1EE10FAD4BFE06B606C804744F2F410FB
:10314000C2F20000D0F8070040F2B411C2F2000150
:1031500020F0004091ED000A01EE100AB4EE401A92
:1031600040F25C78F1EE10FAD4BF206CA06CC2F291
:1031700000088047216B06208847002044F66851EC
:1031800044F21C2340F2707540F26077CBF80000E7
:10319000C2F20001C2F20003C2F20005C2F200074F
:1031A000C346086044F6805CC2F2000CCE4694E050
:1031B000DCF80000216B28601868F14638600620B2
:1031C000884744F66858C2F2000898ED000A9FED5F
:1031D000A51A022044F6805C40F2607740F27075D8
:1031E00044F21C23B4EE410ACBF8000040F25C7BB1
:1031F000CE46C2F2000CC2F20007C2F20005C2F2D3
:103200000003F1EE10FAC2F2000B66DD216B06201E
:10321000884740F2647CC2F2000CDCF8001041F6F2
:1032200080234A1CC0F206039942134640F64050E0
:10323000A8BF0023C0F203008142B8BF1346CCF8F8
:10324000003044F6805C40F26077CE46C2F2000C5B
:10325000C2F2000734E044F66858C2F2000898ED64
:10326000000AB7EE001A9FED7F2A30EE010AB4EE95
:10327000420A40F25C7BF1EE10FAC2F2000B88EDDC
:10328000000A2ADD216B6546F146884740F2647CDE
:10329000C2F2000CDCF8001041F680234A1CC0F298
:1032A00006039942134640F64050A8BF0023C0F2DF
:1032B0000300CE468142B8BF1346CCF80030AC467E
:1032C00040F2707544F21C23C2F20005C2F2000302
:1032D0000020C4F29630C8F8000097ED000A9FED78
:1032E000631AB4EE410AF1EE10FA08DA9FED601AA3
:1032F000B4EE410AF1EE10FA04DC012000E00020F7
:103300008BF80000DEF800009FED532A90ED0B1AB9
:1033100044F2F410C2F20000D0F8070040F2BC51B1
:1033200003EE100A23EE022A9FED523A31EE021A02
:1033300044F2182031EE031AC2F2000080ED001AA8
:103340009FED471AB4EE430AF1EE10FAB8BFB0EEA3
:10335000430AB4EE410A40F2B850C2F20001F1EE65
:1033600010FAB8BFB0EE401AD5ED000AC2F2000064
:1033700091ED000A87ED001A90ED001AF4EE400A74
:10338000F1EE10FAF4EE410AB8BFF0EE400AF1EEA9
:1033900010FAC8BFF0EE410A9AF800103868317090
:1033A000E16A00EE100AC5ED000ACCED000A1860D3
:1033B0008847BDEC028B01B0BDE8F08FE06B804721
:1033C0009FED261A87ED001A44F2F410C2F20000B5
:1033D000D0F8030095ED000A20F0004001EE100A3D
:1033E000B4EE401AF1EE10FAD4BFE06B606C804787
:1033F00044F2F410C2F20000D0F8070040F2B41119
:10340000C2F2000120F0004091ED000A01EE100A26
:10341000B4EE401AF1EE10FAD4BF206CA06C8047D5
:10342000216B06208847002044F66851CBF8000045
:10343000C2F2000144F21C2340F2707540F2607742
:1034400040F25C7B0860C2F20003C2F20005C2F2E7
:103450000007C2F2000BA5E64DF38E3C0000000011
:103460000000FA43000096430000A5449A99193FD2
:10347000CDCCCCBD0000FAC340F27470C2F20000A3
:10348000C0ED000A80ED010A7047000040F2747040
:10349000C2F2000080ED010A7047000040F2747033
:1034A000C2F2000080ED000A704700009FED1A1A7A
:1034B0009FED1A2AB4EE410A40F2BC51F1EE10FA27
:1034C000B8BFB0EE410AB4EE420AC2F20001F1EE1A
:1034D00010FAB8BFB0EE402A91ED000A40F2B851A0
:1034E000C2F2000140F2747091ED001AC2F20000C5
:1034F000B4EE600A80ED012AF1EE10FAB4EE601A23
:10350000C8BFF0EE400AF1EE10FAB8BFF0EE410A83
:10351000C0ED000A704700BF0000FAC30000FA4384
:10352000062888BF7047DFE800F0040F1A25303BFB
:103530004C0040F29C50C2F2000040F2BC51D0E975
:103540000020C2F2000135E040F29C50C2F20000BF
:1035500040F2BC51D0E90120C2F200012AE040F261
:103560009C50C2F2000040F2BC51D0E90220C2F2ED
:1035700000011FE040F29C50C2F2000040F2BC513A
:10358000D0E90320C2F2000114E040F29C50C2F2E4
:10359000000040F2BC51D0E90420C2F2000109E071
:1035A00040F29C50C2F2000040F2BC51D0E905202C
:1035B000C2F200010A6040F2B851C2F20001086094
:1035C000704740F2BC5045F20001C2F20000CCF25C
:1035D000C371016040F2B85045F20001C2F2000030
:1035E000C4F2C3710160704710B540F27451C2F269
:1035F000000144F2082491ED000A44F67451C2F22D
:103600000004C2F200012068D1ED000A44F67051B6
:10361000C2F20001006C91ED001A00F043FE206838
:10362000DFED050AC06B9FED030AB0EE601A00F0F3
:1036300039FE10BD0000FA440000000080B540F2E1
:103640007851C2F2000144F20C2091ED000A44F6D8
:103650007C51C2F20000C2F200010068D1ED000A04
:1036600044F67851C2F20001006C91ED001A00F0AE
:1036700019FE80BD10B540F28451C2F2000144F23F
:10368000082491ED000A40F28051C2F20004C2F217
:1036900000012068D1ED000A40F27C51C2F2000125
:1036A000006C91ED001A00F0FDFD2068DFED050AC9
:1036B000C06B9FED030AB0EE601A00F0F3FD10BD81
:1036C0000000FA440000000080B540F29051C2F2C0
:1036D000000144F20C2091ED000A40F28C51C2F23C
:1036E0000000C2F200010068D1ED000A40F28851EA
:1036F000C2F20001006C91ED001A00F0D3FD80BD14
:103700002DE9F04182B0DDF820801C4615460E46BA
:10371000074600F07DF802208DF80400694638461F
:1037200000968DF806508DF805808DF8074004F05E
:1037300029FD02B0BDE8F081B0B582B00C46054667
:1037400000F066F803208DF8040000208DF80700D3
:1037500069462846009404F015FD02B0B0BD000093
:1037600080B512B104F08DFD80BD04F088FD80BDF0
:103770002DE9F04383B0DDE90A891C4615460E4663
:10378000074600F045F801A9384601968DF8085023
:103790008DF80A408DF809908DF80B8004F0F2FC4A
:1037A00003B0BDE8F0830000F0B583B01C461546B9
:1037B0000E46074600F02CF800208DF808008DF822
:1037C0000A0001A9384601968DF809408DF80B5082
:1037D00004F0D8FC03B0F0BD2DE9F04182B0DDF873
:1037E00020801C4615460E46074600F011F80120C1
:1037F0008DF804006946384600968DF806508DF81D
:1038000005808DF8074004F0BDFC02B0BDE8F081F2
:10381000B0B50446A0F18040A0F5073505F5E050AD
:103820004FEAB0200A2800F2B580DFE810F00B0064
:103830001D002F004000510060006F007B009100D0
:10384000A200AE000120012104F070FD05F5C0507A
:103850004FEAB020092800F29D80DFE800F005174C
:103860002839485763798A960220012104F05EFDC9
:1038700005F5A0504FEAB020082800F28B80DFE861
:1038800000F0051627364551677884000420012191
:1038900004F04CFD05F580504FEAB020072800F2F7
:1038A0007980DFE800F0041524333F556672082064
:1038B000012104F03BFD05F540604FEAB0200628E9
:1038C00000F26880DFE800F00413222E4455610006
:1038D0001020012104F02AFD05F500604FEAB02018
:1038E000052857D8DFE800F003121E344551202088
:1038F000012104F01BFD05F580604FEAB02004288B
:1039000048D8DFE800F0030F2536420040200121AF
:1039100004F00CFD4FEAB52003283BD8DFE800F0A7
:10392000021829358020012104F000FD42F6000034
:10393000C4F20200844228D042F20040C4F20200E5
:10394000844216D042F20000C4F20200844221D127
:103950004FF48070012104F0E9FC42F60000C4F24B
:103960000200844211D042F20040C4F202008442BC
:1039700010D14FF40070012104F0D8FC42F6000091
:10398000C4F20200844218BFB0BD4FF48060012130
:1039900004F0CCFCB0BD000080B549004FF0030C32
:1039A000D0F800E00CFA01F32EEA03030360036889
:1039B00002FA01F11943016080BD000080B598B1A1
:1039C00081B14AF2127C0138C0F6000C10F801EF08
:1039D000D3B283EA0E033CF8133092B2013983EA82
:1039E0001222F3D190B280BD4FF6FF7290B280BD2B
:1039F00061B14AF27A4C0138C0F6000C10F8013F70
:103A0000D2B25A401CF802200139F7D11046704753
:103A10002DE9F04381B044F2E038C2F2000858F8D2
:103A200020601C4681460D4686B1174602E000BF65
:103A3000F6685EB1002FFBD071682846B8470028B1
:103A4000F6D0B068002818BF8047F1E758F8296021
:103A500001E000BFF6682EB1002CFBD0716828464B
:103A6000A047F7E701B0BDE8F083000010B544F2CD
:103A7000E030C2F200005B21FCF723FD4AF27C61DA
:103A8000C0F60001D1E900C2D1E9023144F24C5E36
:103A90006FF00F00C2F2000E0EEB00041030B0F514
:103AA000FE6FC4E904C2A361E161F5D110BD00005D
:103AB00010B54AB3002827D444F24C5C4FF0000EF6
:103AC000C2F2000C4FEA0E131CF803307446F02BC0
:103AD00003D07F2C04F1010EF4D344F2E03EC2F295
:103AE000000E5EF820300CEB041C8CF80000CCF8C3
:103AF0000410CCF808204BB11846DB68002BFBD132
:103B0000C0F80CC0604610BD002010BD4EF820C0AB
:103B1000604610BD44F23E10C2F200000089A0F1E0
:103B200033010020952938BF0120704710B582B0BD
:103B30004020012104F0FAFB4FF4FF70009040F2A6
:103B4000013041F61404C0F20010C4F202040190E6
:103B5000A4F11400694604F015FB206840F4FF70DE
:103B6000206002B010BD00002DE9F04182B04AF2A1
:103B7000C060C0F6000041F214054668C4F20205B8
:103B8000A5F114004FF003084FF400610022012357
:103B9000CDF80080B04705F57B704FF480410022DE
:103BA0000123CDF80080B04741F21447C4F2020768
:103BB00007F57B7420464FF4005100220123CDF815
:103BC0000080B04738684FF4005140F480403860BE
:103BD000286820F400602860204604F050FB02B002
:103BE000BDE8F0812DE9F04140F28070C2F20000A2
:103BF0004FF42061FCF765FC43F6B825C2F20005DE
:103C000028469421FCF75DFC43F64C34C2F20004D4
:103C100020469421FCF755FC46F20040C4F2000017
:103C2000286000F5806020604AF28C60C0F60000D9
:103C3000C66800274FF00808B7FA87F0400940022D
:103C4000142F08BF00F2FF10E919282F08BF00F257
:103C5000FF2021F8440F087901F10C0268F35F009E
:103C6000087128688A60B0471437502FE4D10025C6
:103C7000082700BFB5FA85F040094002142D08BF9F
:103C800000F2FF106119282D08BF00F2FF2021F873
:103C9000440F087901F10C0267F35F000871206896
:103CA0008A60B0471435502DE4D1BDE8F0810000A2
:103CB0002DE9F04140F280760025C2F2000600278F
:103CC00005E000BFA5645037B7F5206F26D0F41982
:103CD000207900F003010329F5D14007F2D4206CCC
:103CE00068B1D4ED0B0A94ED110A00F055F92046A5
:103CF00002F0B2FAE06B58B1D4ED0A0A06E0E06BCC
:103D00000028E0D0D4ED0A0A94ED110A00F044F93D
:103D1000204602F0A1FA84ED120AD4E743F6B8284F
:103D200000256FF00F06C2F2000818E0B8EEC00AD6
:103D300002F036FCBDEEC00ABA0810EE100A02EB23
:103D4000820281B208EB8202090A05F006035032B2
:103D5000D154591C013605F1020550540ED208EB1E
:103D60004500406806F1100790ED120ABDEEC00A4A
:103D700041790229DAD30529D8D0DDE743F64C355D
:103D800000266FF00F07C2F2000518E0B8EEC00A77
:103D900002F006FCBDEEC00AA20810EE100A02EB0B
:103DA000820281B205EB8202090A06F00603503254
:103DB000D154591C013706F1020650540ED205EBBE
:103DC0004600406807F1100490ED120ABDEEC00AEB
:103DD00041790229DAD30529D8D0DDE74AF28C608F
:103DE000C0F60000066908F14400B04708F1580029
:103DF000B04708F16C00B04708F18000B04705F10A
:103E00004400B04705F15800B04705F16C00B047D9
:103E100005F18000B047BDE8F0810000F0B581B049
:103E200040F2807604460020C2F2000600EB8001DA
:103E300006EB01152A79D20705D01E2800F10100F2
:103E4000F4D9002511E00F0128465021FCF739FB79
:103E500048F20000C4F23B60E8644FF6FF70E88669
:103E60002846F5516C7102F0A3F9284601B0F0BD67
:103E7000002818BF81617047412882BFFF2040B2EF
:103E8000704731B143F6A462C2F2000252F820003A
:103E90000860002040B27047412882BFFF2040B236
:103EA000704743F6A462C2F2000242F8201082F882
:103EB0000401002040B2704710B582B0044600F003
:103EC0009DFF43F6A460C2F2000080ED420AE27A50
:103ED000A37BA089D4F80F108DF8033002F0FC0307
:103EE000ADF801009008023312F0030201918DF841
:103EF00000300CD0012A12D169460431FFF7BCFF13
:103F0000002814BFDD20AA208DF8030007E0FFF78A
:103F1000C3FF002814BFDD20AA208DF8030040F263
:103F20003050C2F20000026BDDE90001904702B0A0
:103F300010BD000080B582B08DF8040001208DF81E
:103F4000070001A88DF805108DF8062004F0A8F9E7
:103F500002B080BD80B541F22820C2F2000004F01A
:103F6000C1FF80BD80B541F22820C2F20000807AF6
:103F7000002808BF80BD4EF61050CEF20000016848
:103F800021F00601016000F0A5FD41F22820C2F2F7
:103F9000000005F0F6FD80BD2DE9F04381B02DED68
:103FA000088B84B008B390ED08AAB0EE608AB5EE35
:103FB00040AA0446B0EE409AF1EE10FA1ADC00F086
:103FC0001DFF94ED071A30EE41AAB7EE001AB4EEC9
:103FD00041AAF1EE10FA0BDD00F010FFB0EE401A2E
:103FE0009FED8B0A84ED071A07E19FED890A04E132
:103FF00084ED070A94ED0C0A9FED861A30EE490A0B
:10400000B0EEC00AB4EE410AF1EE10FA04DD20462B
:10401000B0EE490A00F04CF9226F52B1DFED7E0A92
:1040200004F134000321B0EE480A9047B0EE408A14
:1040300005E0D4E90D01C4E90E0184ED0D8A94ED8B
:104040000C1A94ED162A31EE488A94ED000AB0EE6F
:10405000C81AD4E91010B4EE421A28EE000AF1EEA4
:1040600010FAC4E9111084ED108A8DED030A53DAB9
:1040700094ED110AB6EE001A38EE000A2AEE000A94
:1040800020EE010A10EE100A06F04AF994ED0A0B30
:1040900002460B4651EC100B05F0F2FD9FED5A1B4A
:1040A00094ED189A59EC118B064641EC100B4FEA2F
:1040B000D9700D4660F3DF7519EE100A0F4684EDD6
:1040C0000A0B06F02DF902460B463046294606F04B
:1040D0006EF998B93046394642464B46B1EE49BA78
:1040E00006F057F9002818BFB0EE49BA1BEE100AC7
:1040F00006F016F941EC100B84ED0A0B606806F02F
:104100000FF994ED0A0B02460B4651EC100B05F02B
:104110001FFF05F083FD00E00020029094ED110ADE
:1041200094ED021A38EE400A21EE000A80EE0A1AD7
:1041300094ED170A8DED011A9DED011AB0EEC11A2A
:10414000B4EE401AF1EE10FA0CDD9DED011AB1EE5D
:10415000402AB5EE401AF1EE10FAC8BFB0EE402A80
:104160008DED012A9DED030A9DED021A9DED012AB8
:1041700030EE010A94ED191A9FED283A30EE020A4A
:10418000B0EEC02A21EE033AB4EE432AF1EE10FA63
:1041900009DDB5EE400AB1EE410AF1EE10FAC8BFF2
:1041A000B0EE410A1AE09FED1E3A21EE031AB4EE7A
:1041B000412AF1EE10FA11DA606F78B994ED131A12
:1041C00094ED142A94ED153A30EE010A30EE020A0D
:1041D00030EE030AB5EE001A20EE010A626F32B12A
:1041E000DFED0D0A04F14C000321904705E0D4E90E
:1041F0001301C4E9140184ED130A04B0BDEC088B6B
:1042000001B0BDE8F08300BF000000000000000026
:10421000000000000AD7233C00FF7F47CDCC4C3F75
:104220009A99993E002808BF704710B52DED068B6E
:1042300078210446B0EEC08AB0EEE0AAB0EEC19A92
:10424000FCF73FF99FED160A94F86C00B4EE409A23
:1042500084ED17AAF1EE10FA84ED188A1ABF84EDE6
:10426000199A40F0040000F0FB0084F86C00002074
:1042700094F86C10CBF68070E061206201F0F500DC
:10428000023084F86C00002038EE080AC4E90A0005
:1042900084ED160ABDEC068BBDE81040704700BFE8
:1042A00000FF7F47002818BF80EC030A704700001A
:1042B000002808BF704790F86C1080ED0C0A41F0A0
:1042C000010180F86C10704780B54EF60450CEF2B4
:1042D0000000016841F00061016000F027FC80BD32
:1042E000B0B582B08020012104F020F84AF2C0600D
:1042F000C0F6000041F600454468C4F202054FF0E4
:10430000030C28463C2100220123CDF800C0A04721
:1043100028463C2103F0B5FF02B0B0BDB0B541F274
:104320008011C2F2000191F83620D20704D101F0C9
:10433000C5FF002080B2B0BD4AF2A462C0F6000200
:104340009369D5681A311C229847044620462021DB
:10435000A8470028FAD06068C0F1120080B2B0BD52
:1043600080B54AF2A460C0F60000026946F28840B7
:10437000C4F202001221904741F20400C4F201008D
:10438000006800F03BFD41F28010C2F2000080EDB9
:10439000000A01F0ABFF80BD80B541F28011C2F28E
:1043A000000191F83620022802F0FE0281F8362042
:1043B00004D0012818BF80BD022100E0042141F68D
:1043C0000000C4F2020003F05AFF80BD10B541F2B4
:1043D0008010C2F2000090F8361041F6000441F05F
:1043E0000101C4F2020480F836102046022103F0D5
:1043F00048FF2046042103F044FF10BD80B500F0C3
:10440000FDFC41F28010C2F2000090ED001A9FED19
:104410000E2A30EE410AB4EE420AF1EE10FA03DD44
:104420000120FFF7B9FF80BD90ED010A31EE400A8F
:10443000B4EE420AF1EE10FA03DD0220FFF7ACFF02
:1044400080BDFFF7C3FF80BDCDCCCC3DF0B581B0C2
:1044500041F20004C4F2010448F2A061C0F201017B
:10446000204601F079F9002848D041F28017C2F2C5
:10447000000707F108012046122200230025FDF75E
:104480000BFFE0B34AF2A460C0F6000046F2884693
:104490008268C4F2020630463D2190473046102122
:1044A0000122012503F010FE3046012103F018FD22
:1044B00000F0A4FC87ED000A01F000FF204640F266
:1044C0002441012204F033FA2046012104F0F0F9DE
:1044D00040F2D444C2F20004636844F26132C0F690
:1044E0000002252040F224419847636848F6000105
:1044F000C2F2000144200022984700E0002528462F
:1045000001B0F0BD41F28010C2F2000090F8360018
:1045100000F001007047000080B500BF012003F0EB
:10452000CBFF0028FAD003F0D3FF80BDB0B50C4616
:104530000546FFF7F1FF611B0131B0FBF1F202FB11
:1045400011002844B0BD000080B503F0A1FE80BD7D
:1045500043F6A462C2F20002801AC0F38702402A26
:1045600007D8002904BF0120704780080870012087
:1045700070470020002918BF0870704743F6A460F8
:10458000C2F20000704700000020704710B543F6EB
:10459000A464C2F2000420464FF48271FBF791FF3D
:1045A00040F23051C2F20001087D082262F35F0040
:1045B00043F6B87E087543F6B960C2F2000EC0F645
:1045C00000000C610B79C1E906E00A20088043F67F
:1045D000C070C2F2000062F35F034AF28C6288602E
:1045E000FF20C0F600024FF00D0C926884F8040121
:1045F00046F600000B7121F80CCFC4F20000904782
:1046000010BD000010B50C4600F0F8FB43F6A460A6
:10461000C2F2000090ED421A9FED152A30EE411AC9
:10462000B4EE421A40F230510022C2F20001F1EE23
:1046300010FAB8BF012281F83C2044F23E12C2F2C7
:104640000002538981ED080AC38191890182218882
:1046500081806188C180A1880181E1884181217ABE
:1046600001F003010173217AC1F38101417310BD8F
:10467000CDCCCC3D80B540F2305CC2F2000CDCF811
:10468000083018604AF28C60C0F60000426946F6B5
:1046900000005960C4F200006146904780BD0000F0
:1046A00082B043F608000021C4F20200019100919B
:1046B00050F8081C41F4803140F8081C50F8081CE0
:1046C00001F400310091019901310191009919B96A
:1046D0000199B1F5A06FF1D150F8081C890354BFBE
:1046E0000021012100910099012946D1826B47F2F6
:1046F000000142F08052C4F2000182630A6842F471
:1047000040420A6002680260026842F400420260AD
:10471000026842F4A052026045F20C42C0F24072BC
:1047200040F8042C50F8082C42F0807240F8082C15
:1047300050F8082C9201FBD50A6842F480320A60D6
:104740004A68D203FCD50A6842F400320A6000BF0E
:104750004A689203FCD540F20571C0F8F81301686D
:1047600021F003010160016841F00201016000BF16
:10477000016801F00C010829FAD102B0704700006D
:1047800010B5FDF791FF40F2E040C2F20000D0F812
:1047900008C046F20040C4F20000022102220023B9
:1047A0000024E047C16B0022C4F2FA32C1E90024C0
:1047B00045F2D232C4F27B120A6640F6DB724FF049
:1047C0007E53C4F249028B608A654AF20001C4F24A
:1047D0000C61C16440F24071C2F20001086010BD7A
:1047E000F0B581B044F22025C2F20005287A44F2E7
:1047F0000426C0F3810141F2C0170129C2F200066C
:10480000C2F200070ED0022903D003290CD10020E8
:1048100009E000F00300032806D1387A00F0030015
:10482000012801D101203070FDF7AAFF287AC0F3DA
:10483000810101290BD002295AD0032940F00D81B2
:1048400044F2DE30C2F200000021017005E100F008
:104850000300811E022970D244F2DE30C2F2000051
:104860000022B5F90010027041F2DC12B1F5167F9A
:10487000C2F2000210DD92ED000AB3EE041AB4EEAB
:10488000410AF1EE10FA07DAB7EE001A012330EE12
:10489000010A037082ED000AB1F5167FBCBF002348
:1048A000136011F5167FBCBF0121017044F23E1167
:1048B000C2F200014989B1F5DC7F06D940F27003EC
:1048C0000022C2F2000302701A6029B940F270019E
:1048D000C2F20001C8220A6040F27001C2F2000177
:1048E0000A68C72A48DC00230370501C0860B4E043
:1048F00000F0030044F23E120238C2F20002B0FAA5
:1049000080F044F2DE3152894009C2F200010870A1
:10491000B2F5DC7F40F27000C2F2000082BF0023DB
:104920000B700360002A04BFC82202600268C72A15
:104930001CDC00230B70511C8EE0012840F08D80A0
:1049400043F6CC70C2F20000007844F2DE31012858
:1049500041F2BC10C2F20000C2F2000113D10122E8
:104960000A700021C4F2F01101600EE042F21171F0
:104970008A4272DBC8216FE042F211708242A4BF0A
:10498000C820086069E000220A7090ED000AB5EEC8
:10499000400AF1EE10FA0BDD44F2DE31BFEE001AF0
:1049A000C2F20001012230EE010A0A7080ED000A15
:1049B000B5F9000041F2E011B0F5167FC2F2000136
:1049C00014DD91ED000AB3EE041AB4EE410AF1EEE3
:1049D00010FA0BDA44F2DE32B7EE001AC2F200022D
:1049E000012330EE010A137081ED000AB0F5167F45
:1049F000BCBF00220A6010F5167F05DA44F2DE30F3
:104A0000C2F200000121017044F23E10C2F2000027
:104A10004089B0F5DC7F0AD944F2DE31C2F20001F0
:104A200000220A7040F27001C2F200010A6028B947
:104A300040F27000C2F20000C821016040F2700034
:104A4000C2F200000168C7291BDC44F2DE32C2F268
:104A500000020023137001310160307828B944F25C
:104A6000DE30C2F2000000210170FDF78DFD95E8F7
:104A70004F00D5E9054587E84F00C7E9054501B076
:104A8000F0BD42F211729142BFF674AFE5E700004B
:104A900010B52DED048B44F65454C2F2000494ED8D
:104AA000009A39EE401AB0EEC11AB4EE601AF1EE77
:104AB00010FA09DD30EE490AB0EE608A02F08AF998
:104AC00020EE080A39EE000A84ED000ABDEC048BE2
:104AD00010BD000010B54EF68854CEF200042068D8
:104AE0004FF6FF7340F47000206043F60000C4F2FC
:104AF00002000168CFF6F66341F001010160002178
:104B0000816002681A40026043F21002C2F2004261
:104B10004260026822F480220260C160FFF7C0FD9B
:104B20004FF0006044F8800C10BD0000B0B500F0FC
:104B30005FF90446FFF762FC44F66050C2F20000E1
:104B4000007810B100F03AF810E041F2E410C2F23F
:104B5000000001880131018040F28840C2F200006B
:104B6000826988B2904708B100F030F94CF6CD4028
:104B7000CCF6CC40604349F699114FEA7000C1F67B
:104B8000991188420BD840F28840C2F20000406977
:104B9000804740F2E040C2F20000406880474AF29D
:104BA0008C60C0F6000046F200444568C4F2000480
:104BB0002046A84704F58060A847B0BDF0B581B095
:104BC00044F65C55C2F20005286844F22024013006
:104BD000C2F2000428602046FFF7A0FB40F2C0109C
:104BE000C2F20000D0F89C2228682146904740F28B
:104BF0003050C2F20000866A00F0FAF82146B04751
:104C000028684CF6CD46CCF6CC46704300F13330E4
:104C100049F699174FEA7000C1F69917B84241D882
:104C2000207AC0F3810102290FD0012913D100F0AD
:104C30000300012815D002282ED0032832D140F2DB
:104C4000B810C2F2000002212BE040F2B810C2F20C
:104C50000000062125E040F2B810C2F20000072152
:104C60001FE044F22C10C2F20000418843F6C870E5
:104C7000C2F2000090ED000A41F2E612B5EE400AE1
:104C8000C2F20002F1EE10FA118005D0BFEE001A58
:104C900030EE010A80ED000A40F2B810C2F20000C6
:104CA000032101702868704300F19930B0F1333F5F
:104CB00038BF02F01BF82868704300F199304FEAC2
:104CC0007000B84298BFFFF78BFD286842F6470492
:104CD000CBF2A37460434DF667064FEAF000C0F2D2
:104CE0001506B04207D841F2E610C2F20000018872
:104CF0000D2001F0C5FF286845F25051C5F255510D
:104D000000FB04104FEAF000B04207D841F2E61071
:104D1000C2F2000001880E2001F0B2FF28684AF6B6
:104D2000A821CAF6AA2100FB04104FEAF000B04205
:104D300007D841F2E610C2F2000001880F2001F00E
:104D40009FFF2868C00705D040F28840C2F20000EB
:104D5000C069804728684EF6EF61CEF6EE614843A1
:104D600048F688014FEA7000C0F68801884298BF73
:104D7000FFF7EAFB41F21444C4F20204FFF7C2FB5E
:104D800000284FF60040CFF6FF700DD0296847F697
:104D90003B72CBF6D862514345F2AC52C0F283026B
:104DA000914209D901B0F0BD216841F480412160F0
:104DB000215821F4006106E0216881F480412160DE
:104DC000215881F40061215001B0F0BD80B544F656
:104DD0006050C2F20000012101701A20002101225E
:104DE000FFF7A8F82B2000210122FFF7A3F880BDD0
:104DF00040F26840C2F200000068704740F268402C
:104E0000C2F2000090ED000A9FED081AB8EE400AC9
:104E1000406880EE010A90ED001A9FED052AB8EE79
:104E2000411A81EE021A30EE010A704700007A44FE
:104E300000247449F0B585B040F2D440C2F20000BD
:104E400000688047FEF790FEFEF770FEFCF7F0F872
:104E50004AF28C60C0F6000044F600040568C4F213
:104E6000000404F5E0500026032700210322082354
:104E700000970196A84704F500500021032208235B
:104E800000970196A8474AF2A460C0F60000436963
:104E9000002000210022984704F5505528464FF481
:104EA000E13100F0A3FD28464FF4E13100F054FC5D
:104EB00028460121012503F0FBFC20464FF4E13197
:104EC00000F094FD20464FF4E13100F045FC20460F
:104ED000FDF776FA40F28801C2F2000120464FF455
:104EE00080720123FDF7D8F9204640F224410122C7
:104EF00003F01DFD2046012103F0DAFC40F23050A2
:104F0000C2F20000406A80470820012103F00EFA37
:104F10004FF4405003904FF44070ADF8100004F58A
:104F2000E23003A98DF8135003F02CF940F2E04071
:104F3000C2F200000068804701F064FEFFF786FAC5
:104F400040F28840C2F200000069804740F2C01081
:104F5000C2F20000D0F898028047FCF75FF8FFF734
:104F60000FFC05B0F0BD000080B514200021022226
:104F7000FEF7E0FF412000210222FEF7DBFF2520A3
:104F800000210022FEF7D6FF442000210322FEF775
:104F9000D1FF392000210322FEF7CCFF172000218A
:104FA0000522FEF7C7FF062000210522FEF7C2FFFB
:104FB000272000210322FEF7BDFF47200021032206
:104FC000FEF7B8FF522000210322FEF7B3FF532063
:104FD00000210322FEF7AEFF80BD000010B54FF4A4
:104FE0008070012103F0C2F94AF2E860C0F60000C7
:104FF00042F200040268C4F200049FED190A204640
:105000000021904720460121012203F0A2FA2D2021
:1050100000210022FEF78EFF2046012103F06DFAE9
:1050200040F2D444C2F20004636846F61172C0F63E
:1050300000022D2001219847636844F2C922C0F67E
:1050400000022D20012198472D2000210022FEF78B
:1050500071FF2D2000210022FEF76CFF10BD00BF64
:1050600000007A4480B540F2D440C2F20000D0F88B
:1050700008C048F2315248F2F54344F60001C0F648
:105080000002C0F60003C4F201011A20E04780BD0F
:1050900080B540F2D440C2F20000D0F808C048F217
:1050A000315248F2F54341F60001C0F60002C0F665
:1050B0000003C4F200012B20E04780BD80B540F220
:1050C000D440C2F20000D0F808C048F2315248F291
:1050D000F54342F20001C0F60002C0F60003C4F23C
:1050E00000012D20E04780BD80B540F2D440C2F2DF
:1050F0000000D0F808C048F2315248F2F54341F6BA
:105100000041C0F60002C0F60003C4F200012C20EA
:10511000E04780BD042984BF9FED0A0A704700EB79
:10512000810191ED0D0AB8EE400AC06A013001EE2E
:10513000100AB8EE411A80EE010A9FED031A20EE24
:10514000010A7047000000000000C84270B52DED54
:10515000028B84B004460068C00725D141F6FF30B9
:10516000C4F200000E46B0EE408A84424FF00000C8
:105170001CDC40F6FF31C4F200018C4232DD41F20A
:10518000FF31C4F200018C4252DC40F60041C4F20F
:1051900000018C4269D041F20001C4F200018C424E
:1051A00040F0C48010206EE00020BFE040F2FF31EC
:1051B000C4F201018C4227DD44F2FF31C4F2010147
:1051C0008C4243DC40F20041C4F201018C424ED0DB
:1051D00044F20001C4F201018C4240F0A7804FF478
:1051E000803056E0B4F1804F43D040F20041C4F229
:1051F00000018C423FD040F60001C4F200018C4215
:1052000040F0948004203EE041F60041C4F20001E9
:105210008C4232D042F20001C4F200018C422ED006
:105220000021C4F201018C4240F08080012030E076
:1052300041F20041C4F200018C4223D041F600014A
:10524000C4F200018C4271D140201CE044F20041C4
:10525000C4F201018C421AD044F60001C4F20101EB
:105260008C4263D14FF4802013E008200BE0022031
:105270000FE0012007E0022005E0802003E04FF46A
:10528000807000E02020012103F070F804E04FF46A
:105290000030012103F07AF840F28400C2F20000ED
:1052A00004F1404100684FEAB12109294FF00001A3
:1052B00038BF012120FA01F200EE102AB8EE400AB0
:1052C00080EE080A0021BCEEC00A10EE100AB0F110
:1052D000011F18D3B4F1804F4FF0000314D040F6F3
:1052E0000045C4F20005AC420ED04DF68363C4F213
:1052F0001B33A2FB03239A0CB0FBF2F04FF0FF32FA
:1053000002EB934300E0002301380290ADF8061051
:10531000ADF80C1001A92046ADF8043003F06EFA88
:105320001EB12046012103F0E8F8012004B0BDECD5
:10533000028B70BD2DE9F0472DED048B86B004463D
:105340000020C4F2010040F20048B0EE608AB0EEE6
:10535000409A1646894601218442C4F201085AD077
:1053600041F6FF30C4F2000084424FF0000714DD24
:1053700043F6FF70C4F2010084422ADC41F600408B
:10538000C4F20000844221D042F20000C4F20000C6
:1053900084421BD044452FD0A5E040F2FF70C4F2F8
:1053A000000084422BDD40F60000C4F2000084427D
:1053B0002ED040F60040C4F20000844228D041F6CE
:1053C0000000C4F20000844240F08D804FF0090AD2
:1053D00023E044F20000C4F2010084420CD044F205
:1053E0000040C4F20100844206D044F60000C4F23A
:1053F0000100844240F077804FF0030A0DE0B4F1E1
:10540000804F08D040F20040C4F2000084426AD1CC
:105410004FF0020A01E04FF0010A4AF2C060C0F604
:105420000000C768D6E900020123914003220092E0
:1054300089B200220025B8473068B188524602F090
:10544000E9FE2068C00705D12046B0EE490A0021D8
:10545000FFF77CFE6020C0F20100B9F1030FCDE937
:105460000255CDE90455019026D8DFE809F0020B7A
:10547000141D01A9204603F075F82046082103F009
:10548000AFF819E001A9204603F0B4F8204608213E
:1054900003F002F910E001A9204603F00BF92046C1
:1054A000082103F057F907E001A9204603F05CF951
:1054B0002046082103F094F92046012103F00EF85C
:1054C00044F48060404503D12046012103F021F8D7
:1054D00020464946B0EE480A00F00CF8204601216B
:1054E000012703F00AF8384606B0BDEC048BBDE88E
:1054F000F0870000042988BF7047B5EE400A9FED91
:10550000111AF1EE10FA9FED102AB8BFB0EE410A61
:10551000C26AB4EE420AB0EE421A0132F1EE10FA5B
:10552000B8BFB0EE401A00EE102AB8EE400A21EEE5
:10553000000A80EE020A00EB8100BCEEC00A80ED9A
:105540000D0A7047000000000000C842F0B581B0AD
:105550002DED028B0C46B0EE408A0546FFF7DAFDD2
:1055600040F28400C2F2000005F1404100684FEAB9
:10557000B12109294FF0000138BF0121C84001EED7
:10558000100AB8EE411A81EE081AB0EE408A0027E0
:10559000BCEEC10A10EE106AB6F1011F17D3B5F1C7
:1055A000804F4FF0000712D040F60041C4F20001D6
:1055B0008D420CD04DF68361C4F21B31A0FB01017A
:1055C000880CB6FBF0F64FF0FF3000EB9147284611
:1055D000002102F092FF701EAF62E86228460121AE
:1055E00002F08BFF28462146B0EE480AFFF782FF03
:1055F000BDEC028B01B0F0BD80B540F2D440C2F2E8
:105600000000D0F808C048F6DB0248F6930344F6E1
:105610000041C0F60002C0F60003C4F200013420CD
:10562000E04780BD80B540F2D440C2F20000D0F81F
:1056300008C048F6DB0248F6930345F20001C0F6C5
:105640000002C0F60003C4F200013520E04780BD2F
:1056500080B540F2D440C2F20000D0F808C048F64D
:10566000DB0248F6930347F60001C0F60002C0F6DD
:105670000003C4F200015220E04780BD80B540F233
:10568000D440C2F20000D0F808C048F6DB0248F669
:10569000930347F60041C0F60002C0F60003C4F2CF
:1056A00000015320E04780BD80B540F2D440C2F2F3
:1056B0000000D0F808C048F6DB0248F6930341F238
:1056C0000001C0F60002C0F60003C4F2010125206B
:1056D000E04780BD80B540F2D440C2F20000D0F86F
:1056E00008C048F6DB0248F6930344F20041C0F6D6
:1056F0000002C0F60003C4F200012620E04780BD8E
:1057000080B540F2D440C2F20000D0F808C048F69C
:10571000DB0248F6930344F60001C0F60002C0F62F
:105720000003C4F200012720E04780BD80B540F2AD
:10573000D440C2F20000D0F808C048F6DB0248F6B8
:10574000930341F20041C0F60002C0F60003C4F228
:1057500001014720E04780BD2DE9F04385B00446B4
:1057600047F6FF3040F60049C4F200000D46C4F28F
:10577000020984424FF000002CDC44F20041C4F2E4
:1057800000018C4256D044F60001C4F200018C4264
:1057900067D047F60001C4F200018C4240F0D0808F
:1057A0004FF08040012102F0E1FD1020012102F0C4
:1057B000BDFD09F5806738460721082202F02AFD61
:1057C0004AF2C060C0F60000C6684FF0020C3846CE
:1057D000802195E047F60041C4F200018C425CD084
:1057E00041F20041C4F201018C4270D041F200014B
:1057F000C4F201018C4240F0A3801020012102F08C
:10580000C5FD022001214FF0020802F08FFDA9F52D
:10581000006738460721072202F0FCFC4AF2C0600C
:10582000C0F60000C6683846802100220123CDF86A
:10583000008069E04FF40030012102F097FD08205C
:10584000012102F073FD48460621072202F0E2FC26
:105850004AF2C060C0F60000C768022648464021F0
:1058600016E04FF48020012102F080FD402001214C
:1058700002F05CFD48460921072202F0CBFC4AF207
:10588000C060C0F60000C768022648464FF40071A9
:10589000002201230096B84737E04FF00040012175
:1058A00002F064FD1020012102F040FD09F580673F
:1058B00038460021082202F0ADFC4AF2C060C0F672
:1058C0000000C6684FF0020C3846012118E0202085
:1058D000012102F05BFD4020012102F027FD09F5C6
:1058E000406738460921082202F094FC4AF2C06061
:1058F000C0F60000C6684FF0020C38464FF4007145
:1059000000220123CDF800C0B047A9F578408442B9
:1059100002D1012103F09AF8E068000713D40020B7
:105920004FF4802102900391ADF810002046202111
:10593000019502F0A5FF01A9204603F01DF8012002
:1059400005B0BDE8F083E068294640F00400E0605F
:10595000204600F005F8012005B0BDE8F083000006
:1059600070B584B06E46044630460D4602F01EFD0A
:1059700041F2004144F48060C4F20101884214BF46
:1059800006F1080006F10C000068E168192209041C
:105990004FF0010158BF0221504305FA01F1B0FB5D
:1059A000F1F048F21F51C5F2EB11A0FB0123E668AC
:1059B0005A096FF0630302FB030016F400434FF033
:1059C000030308BF042300FA03F000F13200A0FB38
:1059D00001014FEA02104FF0070208BF0F2202EA4E
:1059E000511180B20844A06004B070BD2DE9F041AF
:1059F00086B0044647F2FF7040F60048C4F200004B
:105A00000D46C4F2020884424FF000002CDD47F638
:105A10000001C4F200018C424CD047F60041C4F2B0
:105A200000018C4261D041F20041C4F201018C427C
:105A300040F0B1802020012102F0A8FC402001218B
:105A400002F074FC08F5406738460E21082202F087
:105A5000E1FB4AF2C060C0F60000C6684FF0020CDD
:105A600038464FF4804159E044F20041C4F200014D
:105A70008C4259D044F60001C4F200018C4240F03F
:105A80008A804FF48020012102F070FC4020012127
:105A900002F04CFC40460821072202F0BBFB4AF210
:105AA000C060C0F60000C7684FF0020C40464FF4DB
:105AB000807150E04FF08040012102F057FC10202F
:105AC000012102F033FC08F58067384608210822DE
:105AD00002F0A0FB4AF2C060C0F60000C6684FF0BA
